{
  "address": "0xf929C2E604516B22043df6Fe1e322E64D61fecDa",
  "abi": [
    {
      "inputs": [
        {
          "internalType": "string",
          "name": "_initialBaseURI",
          "type": "string"
        },
        {
          "internalType": "address",
          "name": "_vrfCoordinator",
          "type": "address"
        },
        {
          "internalType": "uint256",
          "name": "_subscriptionId",
          "type": "uint256"
        },
        {
          "internalType": "bytes32",
          "name": "_keyHash",
          "type": "bytes32"
        },
        {
          "internalType": "uint32",
          "name": "_callbackGasLimit",
          "type": "uint32"
        },
        {
          "internalType": "uint16",
          "name": "_requestConfirmations",
          "type": "uint16"
        },
        {
          "internalType": "uint32",
          "name": "_numWords",
          "type": "uint32"
        }
      ],
      "stateMutability": "nonpayable",
      "type": "constructor"
    },
    {
      "inputs": [
        {
          "internalType": "address",
          "name": "have",
          "type": "address"
        },
        {
          "internalType": "address",
          "name": "want",
          "type": "address"
        }
      ],
      "name": "OnlyCoordinatorCanFulfill",
      "type": "error"
    },
    {
      "inputs": [
        {
          "internalType": "address",
          "name": "have",
          "type": "address"
        },
        {
          "internalType": "address",
          "name": "owner",
          "type": "address"
        },
        {
          "internalType": "address",
          "name": "coordinator",
          "type": "address"
        }
      ],
      "name": "OnlyOwnerOrCoordinator",
      "type": "error"
    },
    {
      "inputs": [],
      "name": "ZeroAddress",
      "type": "error"
    },
    {
      "anonymous": false,
      "inputs": [
        {
          "indexed": true,
          "internalType": "address",
          "name": "owner",
          "type": "address"
        },
        {
          "indexed": true,
          "internalType": "address",
          "name": "approved",
          "type": "address"
        },
        {
          "indexed": true,
          "internalType": "uint256",
          "name": "tokenId",
          "type": "uint256"
        }
      ],
      "name": "Approval",
      "type": "event"
    },
    {
      "anonymous": false,
      "inputs": [
        {
          "indexed": true,
          "internalType": "address",
          "name": "owner",
          "type": "address"
        },
        {
          "indexed": true,
          "internalType": "address",
          "name": "operator",
          "type": "address"
        },
        {
          "indexed": false,
          "internalType": "bool",
          "name": "approved",
          "type": "bool"
        }
      ],
      "name": "ApprovalForAll",
      "type": "event"
    },
    {
      "anonymous": false,
      "inputs": [
        {
          "indexed": false,
          "internalType": "uint256",
          "name": "_fromTokenId",
          "type": "uint256"
        },
        {
          "indexed": false,
          "internalType": "uint256",
          "name": "_toTokenId",
          "type": "uint256"
        }
      ],
      "name": "BatchMetadataUpdate",
      "type": "event"
    },
    {
      "anonymous": false,
      "inputs": [
        {
          "indexed": false,
          "internalType": "address",
          "name": "vrfCoordinator",
          "type": "address"
        }
      ],
      "name": "CoordinatorSet",
      "type": "event"
    },
    {
      "anonymous": false,
      "inputs": [
        {
          "indexed": false,
          "internalType": "uint256",
          "name": "_tokenId",
          "type": "uint256"
        }
      ],
      "name": "MetadataUpdate",
      "type": "event"
    },
    {
      "anonymous": false,
      "inputs": [
        {
          "indexed": true,
          "internalType": "address",
          "name": "from",
          "type": "address"
        },
        {
          "indexed": true,
          "internalType": "address",
          "name": "to",
          "type": "address"
        }
      ],
      "name": "OwnershipTransferRequested",
      "type": "event"
    },
    {
      "anonymous": false,
      "inputs": [
        {
          "indexed": true,
          "internalType": "address",
          "name": "from",
          "type": "address"
        },
        {
          "indexed": true,
          "internalType": "address",
          "name": "to",
          "type": "address"
        }
      ],
      "name": "OwnershipTransferred",
      "type": "event"
    },
    {
      "anonymous": false,
      "inputs": [
        {
          "indexed": true,
          "internalType": "uint256",
          "name": "requestId",
          "type": "uint256"
        },
        {
          "indexed": false,
          "internalType": "uint256[]",
          "name": "randomWords",
          "type": "uint256[]"
        }
      ],
      "name": "RandomnessFulfilled",
      "type": "event"
    },
    {
      "anonymous": false,
      "inputs": [
        {
          "indexed": true,
          "internalType": "uint256",
          "name": "requestId",
          "type": "uint256"
        },
        {
          "indexed": true,
          "internalType": "address",
          "name": "holder",
          "type": "address"
        }
      ],
      "name": "RandomnessRequested",
      "type": "event"
    },
    {
      "anonymous": false,
      "inputs": [
        {
          "indexed": false,
          "internalType": "address",
          "name": "winner",
          "type": "address"
        },
        {
          "indexed": false,
          "internalType": "uint256",
          "name": "tokenId",
          "type": "uint256"
        }
      ],
      "name": "SurpriseWinner",
      "type": "event"
    },
    {
      "anonymous": false,
      "inputs": [
        {
          "indexed": true,
          "internalType": "uint256",
          "name": "tokenId",
          "type": "uint256"
        },
        {
          "indexed": false,
          "internalType": "string",
          "name": "tokenURI",
          "type": "string"
        }
      ],
      "name": "TokenMinted",
      "type": "event"
    },
    {
      "anonymous": false,
      "inputs": [
        {
          "indexed": true,
          "internalType": "address",
          "name": "from",
          "type": "address"
        },
        {
          "indexed": true,
          "internalType": "address",
          "name": "to",
          "type": "address"
        },
        {
          "indexed": true,
          "internalType": "uint256",
          "name": "tokenId",
          "type": "uint256"
        }
      ],
      "name": "Transfer",
      "type": "event"
    },
    {
      "inputs": [],
      "name": "acceptOwnership",
      "outputs": [],
      "stateMutability": "nonpayable",
      "type": "function"
    },
    {
      "inputs": [
        {
          "internalType": "address",
          "name": "to",
          "type": "address"
        },
        {
          "internalType": "uint256",
          "name": "tokenId",
          "type": "uint256"
        }
      ],
      "name": "approve",
      "outputs": [],
      "stateMutability": "nonpayable",
      "type": "function"
    },
    {
      "inputs": [
        {
          "internalType": "address",
          "name": "owner",
          "type": "address"
        }
      ],
      "name": "balanceOf",
      "outputs": [
        {
          "internalType": "uint256",
          "name": "",
          "type": "uint256"
        }
      ],
      "stateMutability": "view",
      "type": "function"
    },
    {
      "inputs": [],
      "name": "baseURI",
      "outputs": [
        {
          "internalType": "string",
          "name": "",
          "type": "string"
        }
      ],
      "stateMutability": "view",
      "type": "function"
    },
    {
      "inputs": [],
      "name": "callbackGasLimit",
      "outputs": [
        {
          "internalType": "uint32",
          "name": "",
          "type": "uint32"
        }
      ],
      "stateMutability": "view",
      "type": "function"
    },
    {
      "inputs": [
        {
          "internalType": "uint256",
          "name": "_tokenId",
          "type": "uint256"
        },
        {
          "internalType": "string",
          "name": "_assignedSection",
          "type": "string"
        }
      ],
      "name": "generateMetadataURI",
      "outputs": [
        {
          "internalType": "string",
          "name": "",
          "type": "string"
        }
      ],
      "stateMutability": "pure",
      "type": "function"
    },
    {
      "inputs": [
        {
          "internalType": "uint256",
          "name": "tokenId",
          "type": "uint256"
        }
      ],
      "name": "getApproved",
      "outputs": [
        {
          "internalType": "address",
          "name": "",
          "type": "address"
        }
      ],
      "stateMutability": "view",
      "type": "function"
    },
    {
      "inputs": [
        {
          "internalType": "address",
          "name": "owner",
          "type": "address"
        },
        {
          "internalType": "address",
          "name": "operator",
          "type": "address"
        }
      ],
      "name": "isApprovedForAll",
      "outputs": [
        {
          "internalType": "bool",
          "name": "",
          "type": "bool"
        }
      ],
      "stateMutability": "view",
      "type": "function"
    },
    {
      "inputs": [
        {
          "internalType": "address",
          "name": "to",
          "type": "address"
        }
      ],
      "name": "mintAndAssignSection",
      "outputs": [],
      "stateMutability": "payable",
      "type": "function"
    },
    {
      "inputs": [
        {
          "internalType": "address",
          "name": "to",
          "type": "address"
        }
      ],
      "name": "mintTicket",
      "outputs": [],
      "stateMutability": "nonpayable",
      "type": "function"
    },
    {
      "inputs": [],
      "name": "name",
      "outputs": [
        {
          "internalType": "string",
          "name": "",
          "type": "string"
        }
      ],
      "stateMutability": "view",
      "type": "function"
    },
    {
      "inputs": [],
      "name": "numWords",
      "outputs": [
        {
          "internalType": "uint32",
          "name": "",
          "type": "uint32"
        }
      ],
      "stateMutability": "view",
      "type": "function"
    },
    {
      "inputs": [],
      "name": "owner",
      "outputs": [
        {
          "internalType": "address",
          "name": "",
          "type": "address"
        }
      ],
      "stateMutability": "view",
      "type": "function"
    },
    {
      "inputs": [
        {
          "internalType": "uint256",
          "name": "tokenId",
          "type": "uint256"
        }
      ],
      "name": "ownerOf",
      "outputs": [
        {
          "internalType": "address",
          "name": "",
          "type": "address"
        }
      ],
      "stateMutability": "view",
      "type": "function"
    },
    {
      "inputs": [
        {
          "internalType": "uint256",
          "name": "",
          "type": "uint256"
        }
      ],
      "name": "randomResult",
      "outputs": [
        {
          "internalType": "uint256",
          "name": "",
          "type": "uint256"
        }
      ],
      "stateMutability": "view",
      "type": "function"
    },
    {
      "inputs": [
        {
          "internalType": "uint256",
          "name": "requestId",
          "type": "uint256"
        },
        {
          "internalType": "uint256[]",
          "name": "randomWords",
          "type": "uint256[]"
        }
      ],
      "name": "rawFulfillRandomWords",
      "outputs": [],
      "stateMutability": "nonpayable",
      "type": "function"
    },
    {
      "inputs": [],
      "name": "requestConfirmations",
      "outputs": [
        {
          "internalType": "uint16",
          "name": "",
          "type": "uint16"
        }
      ],
      "stateMutability": "view",
      "type": "function"
    },
    {
      "inputs": [
        {
          "internalType": "address",
          "name": "holder",
          "type": "address"
        },
        {
          "internalType": "enum EnchanTix.RequestType",
          "name": "requestedType",
          "type": "uint8"
        }
      ],
      "name": "requestRandomNumber",
      "outputs": [
        {
          "internalType": "uint256",
          "name": "requestId",
          "type": "uint256"
        }
      ],
      "stateMutability": "nonpayable",
      "type": "function"
    },
    {
      "inputs": [
        {
          "internalType": "uint256",
          "name": "",
          "type": "uint256"
        }
      ],
      "name": "requestTypes",
      "outputs": [
        {
          "internalType": "enum EnchanTix.RequestType",
          "name": "",
          "type": "uint8"
        }
      ],
      "stateMutability": "view",
      "type": "function"
    },
    {
      "inputs": [],
      "name": "s_keyHash",
      "outputs": [
        {
          "internalType": "bytes32",
          "name": "",
          "type": "bytes32"
        }
      ],
      "stateMutability": "view",
      "type": "function"
    },
    {
      "inputs": [],
      "name": "s_subscriptionId",
      "outputs": [
        {
          "internalType": "uint256",
          "name": "",
          "type": "uint256"
        }
      ],
      "stateMutability": "view",
      "type": "function"
    },
    {
      "inputs": [],
      "name": "s_vrfCoordinator",
      "outputs": [
        {
          "internalType": "contract IVRFCoordinatorV2Plus",
          "name": "",
          "type": "address"
        }
      ],
      "stateMutability": "view",
      "type": "function"
    },
    {
      "inputs": [
        {
          "internalType": "address",
          "name": "from",
          "type": "address"
        },
        {
          "internalType": "address",
          "name": "to",
          "type": "address"
        },
        {
          "internalType": "uint256",
          "name": "tokenId",
          "type": "uint256"
        }
      ],
      "name": "safeTransferFrom",
      "outputs": [],
      "stateMutability": "nonpayable",
      "type": "function"
    },
    {
      "inputs": [
        {
          "internalType": "address",
          "name": "from",
          "type": "address"
        },
        {
          "internalType": "address",
          "name": "to",
          "type": "address"
        },
        {
          "internalType": "uint256",
          "name": "tokenId",
          "type": "uint256"
        },
        {
          "internalType": "bytes",
          "name": "data",
          "type": "bytes"
        }
      ],
      "name": "safeTransferFrom",
      "outputs": [],
      "stateMutability": "nonpayable",
      "type": "function"
    },
    {
      "inputs": [
        {
          "internalType": "address",
          "name": "operator",
          "type": "address"
        },
        {
          "internalType": "bool",
          "name": "approved",
          "type": "bool"
        }
      ],
      "name": "setApprovalForAll",
      "outputs": [],
      "stateMutability": "nonpayable",
      "type": "function"
    },
    {
      "inputs": [
        {
          "internalType": "string",
          "name": "newBaseURI",
          "type": "string"
        }
      ],
      "name": "setBaseURI",
      "outputs": [],
      "stateMutability": "nonpayable",
      "type": "function"
    },
    {
      "inputs": [
        {
          "internalType": "address",
          "name": "_vrfCoordinator",
          "type": "address"
        }
      ],
      "name": "setCoordinator",
      "outputs": [],
      "stateMutability": "nonpayable",
      "type": "function"
    },
    {
      "inputs": [
        {
          "internalType": "bytes4",
          "name": "interfaceId",
          "type": "bytes4"
        }
      ],
      "name": "supportsInterface",
      "outputs": [
        {
          "internalType": "bool",
          "name": "",
          "type": "bool"
        }
      ],
      "stateMutability": "view",
      "type": "function"
    },
    {
      "inputs": [],
      "name": "symbol",
      "outputs": [
        {
          "internalType": "string",
          "name": "",
          "type": "string"
        }
      ],
      "stateMutability": "view",
      "type": "function"
    },
    {
      "inputs": [
        {
          "internalType": "uint256",
          "name": "",
          "type": "uint256"
        }
      ],
      "name": "tokenSections",
      "outputs": [
        {
          "internalType": "string",
          "name": "",
          "type": "string"
        }
      ],
      "stateMutability": "view",
      "type": "function"
    },
    {
      "inputs": [
        {
          "internalType": "uint256",
          "name": "tokenId",
          "type": "uint256"
        }
      ],
      "name": "tokenURI",
      "outputs": [
        {
          "internalType": "string",
          "name": "",
          "type": "string"
        }
      ],
      "stateMutability": "view",
      "type": "function"
    },
    {
      "inputs": [
        {
          "internalType": "address",
          "name": "from",
          "type": "address"
        },
        {
          "internalType": "address",
          "name": "to",
          "type": "address"
        },
        {
          "internalType": "uint256",
          "name": "tokenId",
          "type": "uint256"
        }
      ],
      "name": "transferFrom",
      "outputs": [],
      "stateMutability": "nonpayable",
      "type": "function"
    },
    {
      "inputs": [
        {
          "internalType": "address",
          "name": "to",
          "type": "address"
        }
      ],
      "name": "transferOwnership",
      "outputs": [],
      "stateMutability": "nonpayable",
      "type": "function"
    }
  ],
  "transactionHash": "0x585416227f35513cc492cf9a2e0ad2e2fe188a1ddf433e027e02f2ca151051ce",
  "args": [
    "https://sapphire-real-tiglon-529.mypinata.cloud/ipfs/QmYMiJKgXp8VQohcXNjo3fNuwUN9JoywpjrqSoCpuCUng7/",
    "0x9DdfaCa8183c41ad55329BdeeD9F6A8d53168B1B",
    "70365997485051525370523385306477814519454730953918500461532800353772157257476",
    "0x787d74caea10b2b357790d5b5247c2f63d1d91572a9846f780606e4d953677ae",
    100000,
    3,
    2
  ],
  "numDeployments": 1,
  "solcInputHash": "895bd15e7319e35a5894cd27140d3226",
  "bytecode": "0x60806040523480156200001157600080fd5b506040516200542538038062005425833981810160405281019062000037919062000747565b85338060006040518060400160405280600981526020017f456e6368616e54697800000000000000000000000000000000000000000000008152506040518060400160405280600381526020017f45544900000000000000000000000000000000000000000000000000000000008152508160009081620000b9919062000a5a565b508060019081620000cb919062000a5a565b505050600073ffffffffffffffffffffffffffffffffffffffff168273ffffffffffffffffffffffffffffffffffffffff160362000140576040517f08c379a0000000000000000000000000000000000000000000000000000000008152600401620001379062000ba2565b60405180910390fd5b81600760006101000a81548173ffffffffffffffffffffffffffffffffffffffff021916908373ffffffffffffffffffffffffffffffffffffffff160217905550600073ffffffffffffffffffffffffffffffffffffffff168173ffffffffffffffffffffffffffffffffffffffff1614620001c857620001c7816200031260201b60201c565b5b505050600073ffffffffffffffffffffffffffffffffffffffff168173ffffffffffffffffffffffffffffffffffffffff160362000232576040517fd92e233d00000000000000000000000000000000000000000000000000000000815260040160405180910390fd5b80600960006101000a81548173ffffffffffffffffffffffffffffffffffffffff021916908373ffffffffffffffffffffffffffffffffffffffff1602179055505086600b908162000285919062000a5a565b5084600c8190555083600d8190555082600e60006101000a81548163ffffffff021916908363ffffffff16021790555081600e60046101000a81548161ffff021916908361ffff16021790555080600e60066101000a81548163ffffffff021916908363ffffffff16021790555062000305600a6200044360201b60201c565b5050505050505062000c36565b3373ffffffffffffffffffffffffffffffffffffffff168173ffffffffffffffffffffffffffffffffffffffff160362000383576040517f08c379a00000000000000000000000000000000000000000000000000000000081526004016200037a9062000c14565b60405180910390fd5b80600860006101000a81548173ffffffffffffffffffffffffffffffffffffffff021916908373ffffffffffffffffffffffffffffffffffffffff1602179055508073ffffffffffffffffffffffffffffffffffffffff16600760009054906101000a900473ffffffffffffffffffffffffffffffffffffffff1673ffffffffffffffffffffffffffffffffffffffff167fed8889f560326eb138920d842192f0eb3dd22b4f139c87a2c57538e05bae127860405160405180910390a350565b6001816000016000828254019250508190555050565b6000604051905090565b600080fd5b600080fd5b600080fd5b600080fd5b6000601f19601f8301169050919050565b7f4e487b7100000000000000000000000000000000000000000000000000000000600052604160045260246000fd5b620004c28262000477565b810181811067ffffffffffffffff82111715620004e457620004e362000488565b5b80604052505050565b6000620004f962000459565b9050620005078282620004b7565b919050565b600067ffffffffffffffff8211156200052a576200052962000488565b5b620005358262000477565b9050602081019050919050565b60005b838110156200056257808201518184015260208101905062000545565b60008484015250505050565b6000620005856200057f846200050c565b620004ed565b905082815260208101848484011115620005a457620005a362000472565b5b620005b184828562000542565b509392505050565b600082601f830112620005d157620005d06200046d565b5b8151620005e38482602086016200056e565b91505092915050565b600073ffffffffffffffffffffffffffffffffffffffff82169050919050565b60006200061982620005ec565b9050919050565b6200062b816200060c565b81146200063757600080fd5b50565b6000815190506200064b8162000620565b92915050565b6000819050919050565b620006668162000651565b81146200067257600080fd5b50565b60008151905062000686816200065b565b92915050565b6000819050919050565b620006a1816200068c565b8114620006ad57600080fd5b50565b600081519050620006c18162000696565b92915050565b600063ffffffff82169050919050565b620006e281620006c7565b8114620006ee57600080fd5b50565b6000815190506200070281620006d7565b92915050565b600061ffff82169050919050565b620007218162000708565b81146200072d57600080fd5b50565b600081519050620007418162000716565b92915050565b600080600080600080600060e0888a03121562000769576200076862000463565b5b600088015167ffffffffffffffff8111156200078a576200078962000468565b5b620007988a828b01620005b9565b9750506020620007ab8a828b016200063a565b9650506040620007be8a828b0162000675565b9550506060620007d18a828b01620006b0565b9450506080620007e48a828b01620006f1565b93505060a0620007f78a828b0162000730565b92505060c06200080a8a828b01620006f1565b91505092959891949750929550565b600081519050919050565b7f4e487b7100000000000000000000000000000000000000000000000000000000600052602260045260246000fd5b600060028204905060018216806200086c57607f821691505b60208210810362000882576200088162000824565b5b50919050565b60008190508160005260206000209050919050565b60006020601f8301049050919050565b600082821b905092915050565b600060088302620008ec7fffffffffffffffffffffffffffffffffffffffffffffffffffffffffffffffff82620008ad565b620008f88683620008ad565b95508019841693508086168417925050509392505050565b6000819050919050565b60006200093b620009356200092f8462000651565b62000910565b62000651565b9050919050565b6000819050919050565b62000957836200091a565b6200096f620009668262000942565b848454620008ba565b825550505050565b600090565b6200098662000977565b620009938184846200094c565b505050565b5b81811015620009bb57620009af6000826200097c565b60018101905062000999565b5050565b601f82111562000a0a57620009d48162000888565b620009df846200089d565b81016020851015620009ef578190505b62000a07620009fe856200089d565b83018262000998565b50505b505050565b600082821c905092915050565b600062000a2f6000198460080262000a0f565b1980831691505092915050565b600062000a4a838362000a1c565b9150826002028217905092915050565b62000a658262000819565b67ffffffffffffffff81111562000a815762000a8062000488565b5b62000a8d825462000853565b62000a9a828285620009bf565b600060209050601f83116001811462000ad2576000841562000abd578287015190505b62000ac9858262000a3c565b86555062000b39565b601f19841662000ae28662000888565b60005b8281101562000b0c5784890151825560018201915060208501945060208101905062000ae5565b8683101562000b2c578489015162000b28601f89168262000a1c565b8355505b6001600288020188555050505b505050505050565b600082825260208201905092915050565b7f43616e6e6f7420736574206f776e657220746f207a65726f0000000000000000600082015250565b600062000b8a60188362000b41565b915062000b978262000b52565b602082019050919050565b6000602082019050818103600083015262000bbd8162000b7b565b9050919050565b7f43616e6e6f74207472616e7366657220746f2073656c66000000000000000000600082015250565b600062000bfc60178362000b41565b915062000c098262000bc4565b602082019050919050565b6000602082019050818103600083015262000c2f8162000bed565b9050919050565b6147df8062000c466000396000f3fe6080604052600436106101ee5760003560e01c80637900905c1161010d5780639eccacf6116100a0578063b88d4fde1161006f578063b88d4fde14610725578063bb55922c1461074e578063c87b56dd1461076a578063e985e9c5146107a7578063f2fde38b146107e4576101ee565b80639eccacf614610669578063a22cb46514610694578063b0fb162f146106bd578063b35aaba5146106e8576101ee565b80638ac00021116100dc5780638ac00021146105bf5780638da5cb5b146105ea5780638ea981171461061557806395d89b411461063e576101ee565b80637900905c1461050357806379ba5097146105405780637ccfd7fc14610557578063897d54a614610582576101ee565b806324f74697116101855780636352211e116101545780636352211e14610421578063674034471461045e5780636c0360eb1461049b57806370a08231146104c6576101ee565b806324f746971461037957806342842e0e146103a457806345bb327b146103cd57806355f804b3146103f8576101ee565b8063095ea7b3116101c1578063095ea7b3146102c15780630d1ac69d146102ea5780631fe543e31461032757806323b872dd14610350576101ee565b806301ffc9a7146101f357806306fdde0314610230578063081812fc1461025b57806308e9bd2614610298575b600080fd5b3480156101ff57600080fd5b5061021a60048036038101906102159190612d09565b61080d565b6040516102279190612d51565b60405180910390f35b34801561023c57600080fd5b5061024561086e565b6040516102529190612dfc565b60405180910390f35b34801561026757600080fd5b50610282600480360381019061027d9190612e54565b610900565b60405161028f9190612ec2565b60405180910390f35b3480156102a457600080fd5b506102bf60048036038101906102ba9190612f09565b610946565b005b3480156102cd57600080fd5b506102e860048036038101906102e39190612f36565b6109be565b005b3480156102f657600080fd5b50610311600480360381019061030c9190612e54565b610ad5565b60405161031e9190612dfc565b60405180910390f35b34801561033357600080fd5b5061034e60048036038101906103499190612fdb565b610b75565b005b34801561035c57600080fd5b506103776004803603810190610372919061303b565b610c3b565b005b34801561038557600080fd5b5061038e610c9b565b60405161039b91906130ad565b60405180910390f35b3480156103b057600080fd5b506103cb60048036038101906103c6919061303b565b610cb1565b005b3480156103d957600080fd5b506103e2610cd1565b6040516103ef91906130e1565b60405180910390f35b34801561040457600080fd5b5061041f600480360381019061041a919061322c565b610cd7565b005b34801561042d57600080fd5b5061044860048036038101906104439190612e54565b610cf2565b6040516104559190612ec2565b60405180910390f35b34801561046a57600080fd5b506104856004803603810190610480919061329a565b610d78565b60405161049291906132e9565b60405180910390f35b3480156104a757600080fd5b506104b061104d565b6040516104bd9190612dfc565b60405180910390f35b3480156104d257600080fd5b506104ed60048036038101906104e89190612f09565b6110db565b6040516104fa91906132e9565b60405180910390f35b34801561050f57600080fd5b5061052a60048036038101906105259190612e54565b611192565b60405161053791906132e9565b60405180910390f35b34801561054c57600080fd5b506105556111b6565b005b34801561056357600080fd5b5061056c61134d565b60405161057991906130ad565b60405180910390f35b34801561058e57600080fd5b506105a960048036038101906105a49190613304565b611363565b6040516105b69190612dfc565b60405180910390f35b3480156105cb57600080fd5b506105d46113b6565b6040516105e191906132e9565b60405180910390f35b3480156105f657600080fd5b506105ff6113bc565b60405161060c9190612ec2565b60405180910390f35b34801561062157600080fd5b5061063c60048036038101906106379190612f09565b6113e6565b005b34801561064a57600080fd5b506106536115c7565b6040516106609190612dfc565b60405180910390f35b34801561067557600080fd5b5061067e611659565b60405161068b91906133bf565b60405180910390f35b3480156106a057600080fd5b506106bb60048036038101906106b69190613406565b61167f565b005b3480156106c957600080fd5b506106d2611695565b6040516106df9190613463565b60405180910390f35b3480156106f457600080fd5b5061070f600480360381019061070a9190612e54565b6116a9565b60405161071c91906134f5565b60405180910390f35b34801561073157600080fd5b5061074c600480360381019061074791906135b1565b6116c9565b005b61076860048036038101906107639190612f09565b61172b565b005b34801561077657600080fd5b50610791600480360381019061078c9190612e54565b61174b565b60405161079e9190612dfc565b60405180910390f35b3480156107b357600080fd5b506107ce60048036038101906107c99190613634565b61185d565b6040516107db9190612d51565b60405180910390f35b3480156107f057600080fd5b5061080b60048036038101906108069190612f09565b6118f1565b005b6000634906490660e01b7bffffffffffffffffffffffffffffffffffffffffffffffffffffffff1916827bffffffffffffffffffffffffffffffffffffffffffffffffffffffff19161480610867575061086682611905565b5b9050919050565b60606000805461087d906136a3565b80601f01602080910402602001604051908101604052809291908181526020018280546108a9906136a3565b80156108f65780601f106108cb576101008083540402835291602001916108f6565b820191906000526020600020905b8154815290600101906020018083116108d957829003601f168201915b5050505050905090565b600061090b826119e7565b6004600083815260200190815260200160002060009054906101000a900473ffffffffffffffffffffffffffffffffffffffff169050919050565b61094e611a32565b610958600a611ac4565b6000610964600a611ada565b90506109708282611ae8565b807fac60a09674f049f6a63c51f373fb7febaf74a582f3a9f82cd39275be73988d21601160008481526020019081526020016000206040516109b2919061376d565b60405180910390a25050565b60006109c982610cf2565b90508073ffffffffffffffffffffffffffffffffffffffff168373ffffffffffffffffffffffffffffffffffffffff1603610a39576040517f08c379a0000000000000000000000000000000000000000000000000000000008152600401610a3090613801565b60405180910390fd5b8073ffffffffffffffffffffffffffffffffffffffff16610a58611b06565b73ffffffffffffffffffffffffffffffffffffffff161480610a875750610a8681610a81611b06565b61185d565b5b610ac6576040517f08c379a0000000000000000000000000000000000000000000000000000000008152600401610abd90613893565b60405180910390fd5b610ad08383611b0e565b505050565b60126020528060005260406000206000915090508054610af4906136a3565b80601f0160208091040260200160405190810160405280929190818152602001828054610b20906136a3565b8015610b6d5780601f10610b4257610100808354040283529160200191610b6d565b820191906000526020600020905b815481529060010190602001808311610b5057829003601f168201915b505050505081565b600960009054906101000a900473ffffffffffffffffffffffffffffffffffffffff1673ffffffffffffffffffffffffffffffffffffffff163373ffffffffffffffffffffffffffffffffffffffff1614610c2b5733600960009054906101000a900473ffffffffffffffffffffffffffffffffffffffff166040517f1cf993f4000000000000000000000000000000000000000000000000000000008152600401610c229291906138b3565b60405180910390fd5b610c36838383611bc7565b505050565b610c4c610c46611b06565b82611bcc565b610c8b576040517f08c379a0000000000000000000000000000000000000000000000000000000008152600401610c829061394e565b60405180910390fd5b610c96838383611c61565b505050565b600e60009054906101000a900463ffffffff1681565b610ccc838383604051806020016040528060008152506116c9565b505050565b600d5481565b610cdf611a32565b80600b9081610cee9190613afb565b5050565b600080610cfe83611f5a565b9050600073ffffffffffffffffffffffffffffffffffffffff168173ffffffffffffffffffffffffffffffffffffffff1603610d6f576040517f08c379a0000000000000000000000000000000000000000000000000000000008152600401610d6690613c19565b60405180910390fd5b80915050919050565b6000610d82611a32565b6000601060008573ffffffffffffffffffffffffffffffffffffffff1673ffffffffffffffffffffffffffffffffffffffff1681526020019081526020016000205414610e04576040517f08c379a0000000000000000000000000000000000000000000000000000000008152600401610dfb90613c85565b60405180910390fd5b600960009054906101000a900473ffffffffffffffffffffffffffffffffffffffff1673ffffffffffffffffffffffffffffffffffffffff16639b1c385e6040518060c00160405280600d548152602001600c548152602001600e60049054906101000a900461ffff1661ffff168152602001600e60009054906101000a900463ffffffff1663ffffffff168152602001600e60069054906101000a900463ffffffff1663ffffffff168152602001610ecd604051806020016040528060001515815250611f97565b8152506040518263ffffffff1660e01b8152600401610eec9190613dbf565b6020604051808303816000875af1158015610f0b573d6000803e3d6000fd5b505050506040513d601f19601f82011682018060405250810190610f2f9190613df6565b905082600f600083815260200190815260200160002060006101000a81548173ffffffffffffffffffffffffffffffffffffffff021916908373ffffffffffffffffffffffffffffffffffffffff160217905550816014600083815260200190815260200160002060006101000a81548160ff02191690836002811115610fb957610fb861347e565b5b0217905550602a601060008573ffffffffffffffffffffffffffffffffffffffff1673ffffffffffffffffffffffffffffffffffffffff168152602001908152602001600020819055508273ffffffffffffffffffffffffffffffffffffffff16817f28f521cf7abd0044cba5bb040c5217ff69a4e5865f5262905018698e68fe7d0060405160405180910390a392915050565b600b805461105a906136a3565b80601f0160208091040260200160405190810160405280929190818152602001828054611086906136a3565b80156110d35780601f106110a8576101008083540402835291602001916110d3565b820191906000526020600020905b8154815290600101906020018083116110b657829003601f168201915b505050505081565b60008073ffffffffffffffffffffffffffffffffffffffff168273ffffffffffffffffffffffffffffffffffffffff160361114b576040517f08c379a000000000000000000000000000000000000000000000000000000000815260040161114290613e95565b60405180910390fd5b600360008373ffffffffffffffffffffffffffffffffffffffff1673ffffffffffffffffffffffffffffffffffffffff168152602001908152602001600020549050919050565b601381815481106111a257600080fd5b906000526020600020016000915090505481565b600860009054906101000a900473ffffffffffffffffffffffffffffffffffffffff1673ffffffffffffffffffffffffffffffffffffffff163373ffffffffffffffffffffffffffffffffffffffff1614611246576040517f08c379a000000000000000000000000000000000000000000000000000000000815260040161123d90613f01565b60405180910390fd5b6000600760009054906101000a900473ffffffffffffffffffffffffffffffffffffffff16905033600760006101000a81548173ffffffffffffffffffffffffffffffffffffffff021916908373ffffffffffffffffffffffffffffffffffffffff1602179055506000600860006101000a81548173ffffffffffffffffffffffffffffffffffffffff021916908373ffffffffffffffffffffffffffffffffffffffff1602179055503373ffffffffffffffffffffffffffffffffffffffff168173ffffffffffffffffffffffffffffffffffffffff167f8be0079c531659141344cd1fd0a4f28419497f9722a3daafe3b4186f6b6457e060405160405180910390a350565b600e60069054906101000a900463ffffffff1681565b606061138f838360405160200161137b9291906140ae565b60405160208183030381529060405261202f565b60405160200161139f9190614102565b604051602081830303815290604052905092915050565b600c5481565b6000600760009054906101000a900473ffffffffffffffffffffffffffffffffffffffff16905090565b6113ee6113bc565b73ffffffffffffffffffffffffffffffffffffffff163373ffffffffffffffffffffffffffffffffffffffff16141580156114775750600960009054906101000a900473ffffffffffffffffffffffffffffffffffffffff1673ffffffffffffffffffffffffffffffffffffffff163373ffffffffffffffffffffffffffffffffffffffff1614155b156114e657336114856113bc565b600960009054906101000a900473ffffffffffffffffffffffffffffffffffffffff166040517f061db9c10000000000000000000000000000000000000000000000000000000081526004016114dd93929190614119565b60405180910390fd5b600073ffffffffffffffffffffffffffffffffffffffff168173ffffffffffffffffffffffffffffffffffffffff160361154c576040517fd92e233d00000000000000000000000000000000000000000000000000000000815260040160405180910390fd5b80600960006101000a81548173ffffffffffffffffffffffffffffffffffffffff021916908373ffffffffffffffffffffffffffffffffffffffff1602179055507fd1a6a14209a385a964d036e404cb5cfb71f4000cdb03c9366292430787261be6816040516115bc9190612ec2565b60405180910390a150565b6060600180546115d6906136a3565b80601f0160208091040260200160405190810160405280929190818152602001828054611602906136a3565b801561164f5780601f106116245761010080835404028352916020019161164f565b820191906000526020600020905b81548152906001019060200180831161163257829003601f168201915b5050505050905090565b600960009054906101000a900473ffffffffffffffffffffffffffffffffffffffff1681565b61169161168a611b06565b83836121b3565b5050565b600e60049054906101000a900461ffff1681565b60146020528060005260406000206000915054906101000a900460ff1681565b6116da6116d4611b06565b83611bcc565b611719576040517f08c379a00000000000000000000000000000000000000000000000000000000081526004016117109061394e565b60405180910390fd5b6117258484848461231f565b50505050565b611733611a32565b61173c81610946565b611747816001610d78565b5050565b6060611756826119e7565b6000600660008481526020019081526020016000208054611776906136a3565b80601f01602080910402602001604051908101604052809291908181526020018280546117a2906136a3565b80156117ef5780601f106117c4576101008083540402835291602001916117ef565b820191906000526020600020905b8154815290600101906020018083116117d257829003601f168201915b50505050509050600061180061237b565b90506000815103611815578192505050611858565b60008251111561184a578082604051602001611832929190614150565b60405160208183030381529060405292505050611858565b6118538461240d565b925050505b919050565b6000600560008473ffffffffffffffffffffffffffffffffffffffff1673ffffffffffffffffffffffffffffffffffffffff16815260200190815260200160002060008373ffffffffffffffffffffffffffffffffffffffff1673ffffffffffffffffffffffffffffffffffffffff16815260200190815260200160002060009054906101000a900460ff16905092915050565b6118f9611a32565b61190281612475565b50565b60007f80ac58cd000000000000000000000000000000000000000000000000000000007bffffffffffffffffffffffffffffffffffffffffffffffffffffffff1916827bffffffffffffffffffffffffffffffffffffffffffffffffffffffff191614806119d057507f5b5e139f000000000000000000000000000000000000000000000000000000007bffffffffffffffffffffffffffffffffffffffffffffffffffffffff1916827bffffffffffffffffffffffffffffffffffffffffffffffffffffffff1916145b806119e057506119df826125a3565b5b9050919050565b6119f08161260d565b611a2f576040517f08c379a0000000000000000000000000000000000000000000000000000000008152600401611a2690613c19565b60405180910390fd5b50565b600760009054906101000a900473ffffffffffffffffffffffffffffffffffffffff1673ffffffffffffffffffffffffffffffffffffffff163373ffffffffffffffffffffffffffffffffffffffff1614611ac2576040517f08c379a0000000000000000000000000000000000000000000000000000000008152600401611ab9906141c0565b60405180910390fd5b565b6001816000016000828254019250508190555050565b600081600001549050919050565b611b0282826040518060200160405280600081525061264e565b5050565b600033905090565b816004600083815260200190815260200160002060006101000a81548173ffffffffffffffffffffffffffffffffffffffff021916908373ffffffffffffffffffffffffffffffffffffffff160217905550808273ffffffffffffffffffffffffffffffffffffffff16611b8183610cf2565b73ffffffffffffffffffffffffffffffffffffffff167f8c5be1e5ebec7d5bd14f71427d1e84f3dd0314c0f7b2291e5b200ac8c7c3b92560405160405180910390a45050565b505050565b600080611bd883610cf2565b90508073ffffffffffffffffffffffffffffffffffffffff168473ffffffffffffffffffffffffffffffffffffffff161480611c1a5750611c19818561185d565b5b80611c5857508373ffffffffffffffffffffffffffffffffffffffff16611c4084610900565b73ffffffffffffffffffffffffffffffffffffffff16145b91505092915050565b8273ffffffffffffffffffffffffffffffffffffffff16611c8182610cf2565b73ffffffffffffffffffffffffffffffffffffffff1614611cd7576040517f08c379a0000000000000000000000000000000000000000000000000000000008152600401611cce90614252565b60405180910390fd5b600073ffffffffffffffffffffffffffffffffffffffff168273ffffffffffffffffffffffffffffffffffffffff1603611d46576040517f08c379a0000000000000000000000000000000000000000000000000000000008152600401611d3d906142e4565b60405180910390fd5b611d5383838360016126a9565b8273ffffffffffffffffffffffffffffffffffffffff16611d7382610cf2565b73ffffffffffffffffffffffffffffffffffffffff1614611dc9576040517f08c379a0000000000000000000000000000000000000000000000000000000008152600401611dc090614252565b60405180910390fd5b6004600082815260200190815260200160002060006101000a81549073ffffffffffffffffffffffffffffffffffffffff02191690556001600360008573ffffffffffffffffffffffffffffffffffffffff1673ffffffffffffffffffffffffffffffffffffffff168152602001908152602001600020600082825403925050819055506001600360008473ffffffffffffffffffffffffffffffffffffffff1673ffffffffffffffffffffffffffffffffffffffff16815260200190815260200160002060008282540192505081905550816002600083815260200190815260200160002060006101000a81548173ffffffffffffffffffffffffffffffffffffffff021916908373ffffffffffffffffffffffffffffffffffffffff160217905550808273ffffffffffffffffffffffffffffffffffffffff168473ffffffffffffffffffffffffffffffffffffffff167fddf252ad1be2c89b69c2b068fc378daa952ba7f163c4a11628f55a4df523b3ef60405160405180910390a4611f5583838360016126af565b505050565b60006002600083815260200190815260200160002060009054906101000a900473ffffffffffffffffffffffffffffffffffffffff169050919050565b60607f92fd13387c7fe7befbc38d303d6468778fb9731bc4583f17d92989c6fcfdeaaa82604051602401611fcb919061432f565b604051602081830303815290604052907bffffffffffffffffffffffffffffffffffffffffffffffffffffffff19166020820180517bffffffffffffffffffffffffffffffffffffffffffffffffffffffff83818316178352505050509050919050565b60606000825103612051576040518060200160405280600081525090506121ae565b600060405180606001604052806040815260200161476a60409139905060006003600285516120809190614379565b61208a91906143dc565b6004612096919061440d565b905060006020826120a79190614379565b67ffffffffffffffff8111156120c0576120bf613101565b5b6040519080825280601f01601f1916602001820160405280156120f25781602001600182028036833780820191505090505b509050818152600183018586518101602084015b8183101561216d576003830192508251603f8160121c1685015160f81b8252600182019150603f81600c1c1685015160f81b8252600182019150603f8160061c1685015160f81b8252600182019150603f811685015160f81b825260018201915050612106565b6003895106600181146121875760028114612197576121a2565b613d3d60f01b60028303526121a2565b603d60f81b60018303525b50505050508093505050505b919050565b8173ffffffffffffffffffffffffffffffffffffffff168373ffffffffffffffffffffffffffffffffffffffff1603612221576040517f08c379a00000000000000000000000000000000000000000000000000000000081526004016122189061449b565b60405180910390fd5b80600560008573ffffffffffffffffffffffffffffffffffffffff1673ffffffffffffffffffffffffffffffffffffffff16815260200190815260200160002060008473ffffffffffffffffffffffffffffffffffffffff1673ffffffffffffffffffffffffffffffffffffffff16815260200190815260200160002060006101000a81548160ff0219169083151502179055508173ffffffffffffffffffffffffffffffffffffffff168373ffffffffffffffffffffffffffffffffffffffff167f17307eab39ab6107e8899845ad3d59bd9653f200f220920489ca2b5937696c31836040516123129190612d51565b60405180910390a3505050565b61232a848484611c61565b612336848484846126b5565b612375576040517f08c379a000000000000000000000000000000000000000000000000000000000815260040161236c9061452d565b60405180910390fd5b50505050565b6060600b805461238a906136a3565b80601f01602080910402602001604051908101604052809291908181526020018280546123b6906136a3565b80156124035780601f106123d857610100808354040283529160200191612403565b820191906000526020600020905b8154815290600101906020018083116123e657829003601f168201915b5050505050905090565b6060612418826119e7565b600061242261237b565b90506000815111612442576040518060200160405280600081525061246d565b8061244c8461283c565b60405160200161245d929190614150565b6040516020818303038152906040525b915050919050565b3373ffffffffffffffffffffffffffffffffffffffff168173ffffffffffffffffffffffffffffffffffffffff16036124e3576040517f08c379a00000000000000000000000000000000000000000000000000000000081526004016124da90614599565b60405180910390fd5b80600860006101000a81548173ffffffffffffffffffffffffffffffffffffffff021916908373ffffffffffffffffffffffffffffffffffffffff1602179055508073ffffffffffffffffffffffffffffffffffffffff16600760009054906101000a900473ffffffffffffffffffffffffffffffffffffffff1673ffffffffffffffffffffffffffffffffffffffff167fed8889f560326eb138920d842192f0eb3dd22b4f139c87a2c57538e05bae127860405160405180910390a350565b60007f01ffc9a7000000000000000000000000000000000000000000000000000000007bffffffffffffffffffffffffffffffffffffffffffffffffffffffff1916827bffffffffffffffffffffffffffffffffffffffffffffffffffffffff1916149050919050565b60008073ffffffffffffffffffffffffffffffffffffffff1661262f83611f5a565b73ffffffffffffffffffffffffffffffffffffffff1614159050919050565b612658838361290a565b61266560008484846126b5565b6126a4576040517f08c379a000000000000000000000000000000000000000000000000000000000815260040161269b9061452d565b60405180910390fd5b505050565b50505050565b50505050565b60006126d68473ffffffffffffffffffffffffffffffffffffffff16612b27565b1561282f578373ffffffffffffffffffffffffffffffffffffffff1663150b7a026126ff611b06565b8786866040518563ffffffff1660e01b81526004016127219493929190614603565b6020604051808303816000875af192505050801561275d57506040513d601f19601f8201168201806040525081019061275a9190614664565b60015b6127df573d806000811461278d576040519150601f19603f3d011682016040523d82523d6000602084013e612792565b606091505b5060008151036127d7576040517f08c379a00000000000000000000000000000000000000000000000000000000081526004016127ce9061452d565b60405180910390fd5b805181602001fd5b63150b7a0260e01b7bffffffffffffffffffffffffffffffffffffffffffffffffffffffff1916817bffffffffffffffffffffffffffffffffffffffffffffffffffffffff191614915050612834565b600190505b949350505050565b60606000600161284b84612b4a565b01905060008167ffffffffffffffff81111561286a57612869613101565b5b6040519080825280601f01601f19166020018201604052801561289c5781602001600182028036833780820191505090505b509050600082602001820190505b6001156128ff578080600190039150507f3031323334353637383961626364656600000000000000000000000000000000600a86061a8153600a85816128f3576128f26143ad565b5b049450600085036128aa575b819350505050919050565b600073ffffffffffffffffffffffffffffffffffffffff168273ffffffffffffffffffffffffffffffffffffffff1603612979576040517f08c379a0000000000000000000000000000000000000000000000000000000008152600401612970906146dd565b60405180910390fd5b6129828161260d565b156129c2576040517f08c379a00000000000000000000000000000000000000000000000000000000081526004016129b990614749565b60405180910390fd5b6129d06000838360016126a9565b6129d98161260d565b15612a19576040517f08c379a0000000000000000000000000000000000000000000000000000000008152600401612a1090614749565b60405180910390fd5b6001600360008473ffffffffffffffffffffffffffffffffffffffff1673ffffffffffffffffffffffffffffffffffffffff16815260200190815260200160002060008282540192505081905550816002600083815260200190815260200160002060006101000a81548173ffffffffffffffffffffffffffffffffffffffff021916908373ffffffffffffffffffffffffffffffffffffffff160217905550808273ffffffffffffffffffffffffffffffffffffffff16600073ffffffffffffffffffffffffffffffffffffffff167fddf252ad1be2c89b69c2b068fc378daa952ba7f163c4a11628f55a4df523b3ef60405160405180910390a4612b236000838360016126af565b5050565b6000808273ffffffffffffffffffffffffffffffffffffffff163b119050919050565b600080600090507a184f03e93ff9f4daa797ed6e38ed64bf6a1f0100000000000000008310612ba8577a184f03e93ff9f4daa797ed6e38ed64bf6a1f0100000000000000008381612b9e57612b9d6143ad565b5b0492506040810190505b6d04ee2d6d415b85acef81000000008310612be5576d04ee2d6d415b85acef81000000008381612bdb57612bda6143ad565b5b0492506020810190505b662386f26fc100008310612c1457662386f26fc100008381612c0a57612c096143ad565b5b0492506010810190505b6305f5e1008310612c3d576305f5e1008381612c3357612c326143ad565b5b0492506008810190505b6127108310612c62576127108381612c5857612c576143ad565b5b0492506004810190505b60648310612c855760648381612c7b57612c7a6143ad565b5b0492506002810190505b600a8310612c94576001810190505b80915050919050565b6000604051905090565b600080fd5b600080fd5b60007fffffffff0000000000000000000000000000000000000000000000000000000082169050919050565b612ce681612cb1565b8114612cf157600080fd5b50565b600081359050612d0381612cdd565b92915050565b600060208284031215612d1f57612d1e612ca7565b5b6000612d2d84828501612cf4565b91505092915050565b60008115159050919050565b612d4b81612d36565b82525050565b6000602082019050612d666000830184612d42565b92915050565b600081519050919050565b600082825260208201905092915050565b60005b83811015612da6578082015181840152602081019050612d8b565b60008484015250505050565b6000601f19601f8301169050919050565b6000612dce82612d6c565b612dd88185612d77565b9350612de8818560208601612d88565b612df181612db2565b840191505092915050565b60006020820190508181036000830152612e168184612dc3565b905092915050565b6000819050919050565b612e3181612e1e565b8114612e3c57600080fd5b50565b600081359050612e4e81612e28565b92915050565b600060208284031215612e6a57612e69612ca7565b5b6000612e7884828501612e3f565b91505092915050565b600073ffffffffffffffffffffffffffffffffffffffff82169050919050565b6000612eac82612e81565b9050919050565b612ebc81612ea1565b82525050565b6000602082019050612ed76000830184612eb3565b92915050565b612ee681612ea1565b8114612ef157600080fd5b50565b600081359050612f0381612edd565b92915050565b600060208284031215612f1f57612f1e612ca7565b5b6000612f2d84828501612ef4565b91505092915050565b60008060408385031215612f4d57612f4c612ca7565b5b6000612f5b85828601612ef4565b9250506020612f6c85828601612e3f565b9150509250929050565b600080fd5b600080fd5b600080fd5b60008083601f840112612f9b57612f9a612f76565b5b8235905067ffffffffffffffff811115612fb857612fb7612f7b565b5b602083019150836020820283011115612fd457612fd3612f80565b5b9250929050565b600080600060408486031215612ff457612ff3612ca7565b5b600061300286828701612e3f565b935050602084013567ffffffffffffffff81111561302357613022612cac565b5b61302f86828701612f85565b92509250509250925092565b60008060006060848603121561305457613053612ca7565b5b600061306286828701612ef4565b935050602061307386828701612ef4565b925050604061308486828701612e3f565b9150509250925092565b600063ffffffff82169050919050565b6130a78161308e565b82525050565b60006020820190506130c2600083018461309e565b92915050565b6000819050919050565b6130db816130c8565b82525050565b60006020820190506130f660008301846130d2565b92915050565b600080fd5b7f4e487b7100000000000000000000000000000000000000000000000000000000600052604160045260246000fd5b61313982612db2565b810181811067ffffffffffffffff8211171561315857613157613101565b5b80604052505050565b600061316b612c9d565b90506131778282613130565b919050565b600067ffffffffffffffff82111561319757613196613101565b5b6131a082612db2565b9050602081019050919050565b82818337600083830152505050565b60006131cf6131ca8461317c565b613161565b9050828152602081018484840111156131eb576131ea6130fc565b5b6131f68482856131ad565b509392505050565b600082601f83011261321357613212612f76565b5b81356132238482602086016131bc565b91505092915050565b60006020828403121561324257613241612ca7565b5b600082013567ffffffffffffffff8111156132605761325f612cac565b5b61326c848285016131fe565b91505092915050565b6003811061328257600080fd5b50565b60008135905061329481613275565b92915050565b600080604083850312156132b1576132b0612ca7565b5b60006132bf85828601612ef4565b92505060206132d085828601613285565b9150509250929050565b6132e381612e1e565b82525050565b60006020820190506132fe60008301846132da565b92915050565b6000806040838503121561331b5761331a612ca7565b5b600061332985828601612e3f565b925050602083013567ffffffffffffffff81111561334a57613349612cac565b5b613356858286016131fe565b9150509250929050565b6000819050919050565b600061338561338061337b84612e81565b613360565b612e81565b9050919050565b60006133978261336a565b9050919050565b60006133a98261338c565b9050919050565b6133b98161339e565b82525050565b60006020820190506133d460008301846133b0565b92915050565b6133e381612d36565b81146133ee57600080fd5b50565b600081359050613400816133da565b92915050565b6000806040838503121561341d5761341c612ca7565b5b600061342b85828601612ef4565b925050602061343c858286016133f1565b9150509250929050565b600061ffff82169050919050565b61345d81613446565b82525050565b60006020820190506134786000830184613454565b92915050565b7f4e487b7100000000000000000000000000000000000000000000000000000000600052602160045260246000fd5b600381106134be576134bd61347e565b5b50565b60008190506134cf826134ad565b919050565b60006134df826134c1565b9050919050565b6134ef816134d4565b82525050565b600060208201905061350a60008301846134e6565b92915050565b600067ffffffffffffffff82111561352b5761352a613101565b5b61353482612db2565b9050602081019050919050565b600061355461354f84613510565b613161565b9050828152602081018484840111156135705761356f6130fc565b5b61357b8482856131ad565b509392505050565b600082601f83011261359857613597612f76565b5b81356135a8848260208601613541565b91505092915050565b600080600080608085870312156135cb576135ca612ca7565b5b60006135d987828801612ef4565b94505060206135ea87828801612ef4565b93505060406135fb87828801612e3f565b925050606085013567ffffffffffffffff81111561361c5761361b612cac565b5b61362887828801613583565b91505092959194509250565b6000806040838503121561364b5761364a612ca7565b5b600061365985828601612ef4565b925050602061366a85828601612ef4565b9150509250929050565b7f4e487b7100000000000000000000000000000000000000000000000000000000600052602260045260246000fd5b600060028204905060018216806136bb57607f821691505b6020821081036136ce576136cd613674565b5b50919050565b60008190508160005260206000209050919050565b600081546136f6816136a3565b6137008186612d77565b9450600182166000811461371b576001811461373157613764565b60ff198316865281151560200286019350613764565b61373a856136d4565b60005b8381101561375c5781548189015260018201915060208101905061373d565b808801955050505b50505092915050565b6000602082019050818103600083015261378781846136e9565b905092915050565b7f4552433732313a20617070726f76616c20746f2063757272656e74206f776e6560008201527f7200000000000000000000000000000000000000000000000000000000000000602082015250565b60006137eb602183612d77565b91506137f68261378f565b604082019050919050565b6000602082019050818103600083015261381a816137de565b9050919050565b7f4552433732313a20617070726f76652063616c6c6572206973206e6f7420746f60008201527f6b656e206f776e6572206f7220617070726f76656420666f7220616c6c000000602082015250565b600061387d603d83612d77565b915061388882613821565b604082019050919050565b600060208201905081810360008301526138ac81613870565b9050919050565b60006040820190506138c86000830185612eb3565b6138d56020830184612eb3565b9392505050565b7f4552433732313a2063616c6c6572206973206e6f7420746f6b656e206f776e6560008201527f72206f7220617070726f76656400000000000000000000000000000000000000602082015250565b6000613938602d83612d77565b9150613943826138dc565b604082019050919050565b600060208201905081810360008301526139678161392b565b9050919050565b60006020601f8301049050919050565b600082821b905092915050565b6000600883026139bb7fffffffffffffffffffffffffffffffffffffffffffffffffffffffffffffffff8261397e565b6139c5868361397e565b95508019841693508086168417925050509392505050565b60006139f86139f36139ee84612e1e565b613360565b612e1e565b9050919050565b6000819050919050565b613a12836139dd565b613a26613a1e826139ff565b84845461398b565b825550505050565b600090565b613a3b613a2e565b613a46818484613a09565b505050565b5b81811015613a6a57613a5f600082613a33565b600181019050613a4c565b5050565b601f821115613aaf57613a80816136d4565b613a898461396e565b81016020851015613a98578190505b613aac613aa48561396e565b830182613a4b565b50505b505050565b600082821c905092915050565b6000613ad260001984600802613ab4565b1980831691505092915050565b6000613aeb8383613ac1565b9150826002028217905092915050565b613b0482612d6c565b67ffffffffffffffff811115613b1d57613b1c613101565b5b613b2782546136a3565b613b32828285613a6e565b600060209050601f831160018114613b655760008415613b53578287015190505b613b5d8582613adf565b865550613bc5565b601f198416613b73866136d4565b60005b82811015613b9b57848901518255600182019150602085019450602081019050613b76565b86831015613bb85784890151613bb4601f891682613ac1565b8355505b6001600288020188555050505b505050505050565b7f4552433732313a20696e76616c696420746f6b656e2049440000000000000000600082015250565b6000613c03601883612d77565b9150613c0e82613bcd565b602082019050919050565b60006020820190508181036000830152613c3281613bf6565b9050919050565b7f416c726561647920726571756573746564000000000000000000000000000000600082015250565b6000613c6f601183612d77565b9150613c7a82613c39565b602082019050919050565b60006020820190508181036000830152613c9e81613c62565b9050919050565b613cae816130c8565b82525050565b613cbd81612e1e565b82525050565b613ccc81613446565b82525050565b613cdb8161308e565b82525050565b600081519050919050565b600082825260208201905092915050565b6000613d0882613ce1565b613d128185613cec565b9350613d22818560208601612d88565b613d2b81612db2565b840191505092915050565b600060c083016000830151613d4e6000860182613ca5565b506020830151613d616020860182613cb4565b506040830151613d746040860182613cc3565b506060830151613d876060860182613cd2565b506080830151613d9a6080860182613cd2565b5060a083015184820360a0860152613db28282613cfd565b9150508091505092915050565b60006020820190508181036000830152613dd98184613d36565b905092915050565b600081519050613df081612e28565b92915050565b600060208284031215613e0c57613e0b612ca7565b5b6000613e1a84828501613de1565b91505092915050565b7f4552433732313a2061646472657373207a65726f206973206e6f74206120766160008201527f6c6964206f776e65720000000000000000000000000000000000000000000000602082015250565b6000613e7f602983612d77565b9150613e8a82613e23565b604082019050919050565b60006020820190508181036000830152613eae81613e72565b9050919050565b7f4d7573742062652070726f706f736564206f776e657200000000000000000000600082015250565b6000613eeb601683612d77565b9150613ef682613eb5565b602082019050919050565b60006020820190508181036000830152613f1a81613ede565b9050919050565b600081905092915050565b7f7b226e616d65223a220000000000000000000000000000000000000000000000600082015250565b6000613f62600983613f21565b9150613f6d82613f2c565b600982019050919050565b7f456e6368616e5469785469636b65745f00000000000000000000000000000000600082015250565b6000613fae601083613f21565b9150613fb982613f78565b601082019050919050565b6000819050919050565b613fdf613fda82612e1e565b613fc4565b82525050565b7f222c202261737369676e656453656374696f6e223a2022000000000000000000600082015250565b600061401b601783613f21565b915061402682613fe5565b601782019050919050565b600061403c82612d6c565b6140468185613f21565b9350614056818560208601612d88565b80840191505092915050565b7f22227d0000000000000000000000000000000000000000000000000000000000600082015250565b6000614098600383613f21565b91506140a382614062565b600382019050919050565b60006140b982613f55565b91506140c482613fa1565b91506140d08285613fce565b6020820191506140df8261400e565b91506140eb8284614031565b91506140f68261408b565b91508190509392505050565b600061410e8284614031565b915081905092915050565b600060608201905061412e6000830186612eb3565b61413b6020830185612eb3565b6141486040830184612eb3565b949350505050565b600061415c8285614031565b91506141688284614031565b91508190509392505050565b7f4f6e6c792063616c6c61626c65206279206f776e657200000000000000000000600082015250565b60006141aa601683612d77565b91506141b582614174565b602082019050919050565b600060208201905081810360008301526141d98161419d565b9050919050565b7f4552433732313a207472616e736665722066726f6d20696e636f72726563742060008201527f6f776e6572000000000000000000000000000000000000000000000000000000602082015250565b600061423c602583612d77565b9150614247826141e0565b604082019050919050565b6000602082019050818103600083015261426b8161422f565b9050919050565b7f4552433732313a207472616e7366657220746f20746865207a65726f2061646460008201527f7265737300000000000000000000000000000000000000000000000000000000602082015250565b60006142ce602483612d77565b91506142d982614272565b604082019050919050565b600060208201905081810360008301526142fd816142c1565b9050919050565b61430d81612d36565b82525050565b6020820160008201516143296000850182614304565b50505050565b60006020820190506143446000830184614313565b92915050565b7f4e487b7100000000000000000000000000000000000000000000000000000000600052601160045260246000fd5b600061438482612e1e565b915061438f83612e1e565b92508282019050808211156143a7576143a661434a565b5b92915050565b7f4e487b7100000000000000000000000000000000000000000000000000000000600052601260045260246000fd5b60006143e782612e1e565b91506143f283612e1e565b925082614402576144016143ad565b5b828204905092915050565b600061441882612e1e565b915061442383612e1e565b925082820261443181612e1e565b915082820484148315176144485761444761434a565b5b5092915050565b7f4552433732313a20617070726f766520746f2063616c6c657200000000000000600082015250565b6000614485601983612d77565b91506144908261444f565b602082019050919050565b600060208201905081810360008301526144b481614478565b9050919050565b7f4552433732313a207472616e7366657220746f206e6f6e20455243373231526560008201527f63656976657220696d706c656d656e7465720000000000000000000000000000602082015250565b6000614517603283612d77565b9150614522826144bb565b604082019050919050565b600060208201905081810360008301526145468161450a565b9050919050565b7f43616e6e6f74207472616e7366657220746f2073656c66000000000000000000600082015250565b6000614583601783612d77565b915061458e8261454d565b602082019050919050565b600060208201905081810360008301526145b281614576565b9050919050565b600082825260208201905092915050565b60006145d582613ce1565b6145df81856145b9565b93506145ef818560208601612d88565b6145f881612db2565b840191505092915050565b60006080820190506146186000830187612eb3565b6146256020830186612eb3565b61463260408301856132da565b818103606083015261464481846145ca565b905095945050505050565b60008151905061465e81612cdd565b92915050565b60006020828403121561467a57614679612ca7565b5b60006146888482850161464f565b91505092915050565b7f4552433732313a206d696e7420746f20746865207a65726f2061646472657373600082015250565b60006146c7602083612d77565b91506146d282614691565b602082019050919050565b600060208201905081810360008301526146f6816146ba565b9050919050565b7f4552433732313a20746f6b656e20616c7265616479206d696e74656400000000600082015250565b6000614733601c83612d77565b915061473e826146fd565b602082019050919050565b6000602082019050818103600083015261476281614726565b905091905056fe4142434445464748494a4b4c4d4e4f505152535455565758595a6162636465666768696a6b6c6d6e6f707172737475767778797a303132333435363738392b2fa264697066735822122069abc40a6e1df4b1589ead04cfa26573b3d2d84e06c157e3d1bb5be4b9f28d4164736f6c63430008130033",
  "devdoc": {
    "events": {
      "Approval(address,address,uint256)": {
        "details": "Emitted when `owner` enables `approved` to manage the `tokenId` token."
      },
      "ApprovalForAll(address,address,bool)": {
        "details": "Emitted when `owner` enables or disables (`approved`) `operator` to manage all of its assets."
      },
      "BatchMetadataUpdate(uint256,uint256)": {
        "details": "This event emits when the metadata of a range of tokens is changed. So that the third-party platforms such as NFT market could timely update the images and related attributes of the NFTs."
      },
      "MetadataUpdate(uint256)": {
        "details": "This event emits when the metadata of a token is changed. So that the third-party platforms such as NFT market could timely update the images and related attributes of the NFT."
      },
      "Transfer(address,address,uint256)": {
        "details": "Emitted when `tokenId` token is transferred from `from` to `to`."
      }
    },
    "kind": "dev",
    "methods": {
      "approve(address,uint256)": {
        "details": "See {IERC721-approve}."
      },
      "balanceOf(address)": {
        "details": "See {IERC721-balanceOf}."
      },
      "getApproved(uint256)": {
        "details": "See {IERC721-getApproved}."
      },
      "isApprovedForAll(address,address)": {
        "details": "See {IERC721-isApprovedForAll}."
      },
      "name()": {
        "details": "See {IERC721Metadata-name}."
      },
      "ownerOf(uint256)": {
        "details": "See {IERC721-ownerOf}."
      },
      "safeTransferFrom(address,address,uint256)": {
        "details": "See {IERC721-safeTransferFrom}."
      },
      "safeTransferFrom(address,address,uint256,bytes)": {
        "details": "See {IERC721-safeTransferFrom}."
      },
      "setApprovalForAll(address,bool)": {
        "details": "See {IERC721-setApprovalForAll}."
      },
      "supportsInterface(bytes4)": {
        "details": "See {IERC165-supportsInterface}"
      },
      "symbol()": {
        "details": "See {IERC721Metadata-symbol}."
      },
      "tokenURI(uint256)": {
        "details": "See {IERC721Metadata-tokenURI}."
      },
      "transferFrom(address,address,uint256)": {
        "details": "See {IERC721-transferFrom}."
      }
    },
    "version": 1
  },
  "userdoc": {
    "kind": "user",
    "methods": {
      "acceptOwnership()": {
        "notice": "Allows an ownership transfer to be completed by the recipient."
      },
      "owner()": {
        "notice": "Get the current owner"
      },
      "setCoordinator(address)": {
        "notice": "Sets the VRF Coordinator addressThis method should only be callable by the coordinator or contract owner"
      },
      "transferOwnership(address)": {
        "notice": "Allows an owner to begin transferring ownership to a new address."
      }
    },
    "version": 1
  },
  "storageLayout": {
    "storage": [
      {
        "astId": 692,
        "contract": "contracts/EnchanTix.sol:EnchanTix",
        "label": "_name",
        "offset": 0,
        "slot": "0",
        "type": "t_string_storage"
      },
      {
        "astId": 694,
        "contract": "contracts/EnchanTix.sol:EnchanTix",
        "label": "_symbol",
        "offset": 0,
        "slot": "1",
        "type": "t_string_storage"
      },
      {
        "astId": 698,
        "contract": "contracts/EnchanTix.sol:EnchanTix",
        "label": "_owners",
        "offset": 0,
        "slot": "2",
        "type": "t_mapping(t_uint256,t_address)"
      },
      {
        "astId": 702,
        "contract": "contracts/EnchanTix.sol:EnchanTix",
        "label": "_balances",
        "offset": 0,
        "slot": "3",
        "type": "t_mapping(t_address,t_uint256)"
      },
      {
        "astId": 706,
        "contract": "contracts/EnchanTix.sol:EnchanTix",
        "label": "_tokenApprovals",
        "offset": 0,
        "slot": "4",
        "type": "t_mapping(t_uint256,t_address)"
      },
      {
        "astId": 712,
        "contract": "contracts/EnchanTix.sol:EnchanTix",
        "label": "_operatorApprovals",
        "offset": 0,
        "slot": "5",
        "type": "t_mapping(t_address,t_mapping(t_address,t_bool))"
      },
      {
        "astId": 1743,
        "contract": "contracts/EnchanTix.sol:EnchanTix",
        "label": "_tokenURIs",
        "offset": 0,
        "slot": "6",
        "type": "t_mapping(t_uint256,t_string_storage)"
      },
      {
        "astId": 29,
        "contract": "contracts/EnchanTix.sol:EnchanTix",
        "label": "s_owner",
        "offset": 0,
        "slot": "7",
        "type": "t_address"
      },
      {
        "astId": 31,
        "contract": "contracts/EnchanTix.sol:EnchanTix",
        "label": "s_pendingOwner",
        "offset": 0,
        "slot": "8",
        "type": "t_address"
      },
      {
        "astId": 231,
        "contract": "contracts/EnchanTix.sol:EnchanTix",
        "label": "s_vrfCoordinator",
        "offset": 0,
        "slot": "9",
        "type": "t_contract(IVRFCoordinatorV2Plus)380"
      },
      {
        "astId": 3651,
        "contract": "contracts/EnchanTix.sol:EnchanTix",
        "label": "_tokenIdCounter",
        "offset": 0,
        "slot": "10",
        "type": "t_struct(Counter)2268_storage"
      },
      {
        "astId": 3653,
        "contract": "contracts/EnchanTix.sol:EnchanTix",
        "label": "baseURI",
        "offset": 0,
        "slot": "11",
        "type": "t_string_storage"
      },
      {
        "astId": 3655,
        "contract": "contracts/EnchanTix.sol:EnchanTix",
        "label": "s_subscriptionId",
        "offset": 0,
        "slot": "12",
        "type": "t_uint256"
      },
      {
        "astId": 3657,
        "contract": "contracts/EnchanTix.sol:EnchanTix",
        "label": "s_keyHash",
        "offset": 0,
        "slot": "13",
        "type": "t_bytes32"
      },
      {
        "astId": 3659,
        "contract": "contracts/EnchanTix.sol:EnchanTix",
        "label": "callbackGasLimit",
        "offset": 0,
        "slot": "14",
        "type": "t_uint32"
      },
      {
        "astId": 3661,
        "contract": "contracts/EnchanTix.sol:EnchanTix",
        "label": "requestConfirmations",
        "offset": 4,
        "slot": "14",
        "type": "t_uint16"
      },
      {
        "astId": 3663,
        "contract": "contracts/EnchanTix.sol:EnchanTix",
        "label": "numWords",
        "offset": 6,
        "slot": "14",
        "type": "t_uint32"
      },
      {
        "astId": 3670,
        "contract": "contracts/EnchanTix.sol:EnchanTix",
        "label": "s_holders",
        "offset": 0,
        "slot": "15",
        "type": "t_mapping(t_uint256,t_address)"
      },
      {
        "astId": 3674,
        "contract": "contracts/EnchanTix.sol:EnchanTix",
        "label": "s_results",
        "offset": 0,
        "slot": "16",
        "type": "t_mapping(t_address,t_uint256)"
      },
      {
        "astId": 3678,
        "contract": "contracts/EnchanTix.sol:EnchanTix",
        "label": "_tokenURIs",
        "offset": 0,
        "slot": "17",
        "type": "t_mapping(t_uint256,t_string_storage)"
      },
      {
        "astId": 3682,
        "contract": "contracts/EnchanTix.sol:EnchanTix",
        "label": "tokenSections",
        "offset": 0,
        "slot": "18",
        "type": "t_mapping(t_uint256,t_string_storage)"
      },
      {
        "astId": 3685,
        "contract": "contracts/EnchanTix.sol:EnchanTix",
        "label": "randomResult",
        "offset": 0,
        "slot": "19",
        "type": "t_array(t_uint256)dyn_storage"
      },
      {
        "astId": 3694,
        "contract": "contracts/EnchanTix.sol:EnchanTix",
        "label": "requestTypes",
        "offset": 0,
        "slot": "20",
        "type": "t_mapping(t_uint256,t_enum(RequestType)3689)"
      }
    ],
    "types": {
      "t_address": {
        "encoding": "inplace",
        "label": "address",
        "numberOfBytes": "20"
      },
      "t_array(t_uint256)dyn_storage": {
        "base": "t_uint256",
        "encoding": "dynamic_array",
        "label": "uint256[]",
        "numberOfBytes": "32"
      },
      "t_bool": {
        "encoding": "inplace",
        "label": "bool",
        "numberOfBytes": "1"
      },
      "t_bytes32": {
        "encoding": "inplace",
        "label": "bytes32",
        "numberOfBytes": "32"
      },
      "t_contract(IVRFCoordinatorV2Plus)380": {
        "encoding": "inplace",
        "label": "contract IVRFCoordinatorV2Plus",
        "numberOfBytes": "20"
      },
      "t_enum(RequestType)3689": {
        "encoding": "inplace",
        "label": "enum EnchanTix.RequestType",
        "numberOfBytes": "1"
      },
      "t_mapping(t_address,t_bool)": {
        "encoding": "mapping",
        "key": "t_address",
        "label": "mapping(address => bool)",
        "numberOfBytes": "32",
        "value": "t_bool"
      },
      "t_mapping(t_address,t_mapping(t_address,t_bool))": {
        "encoding": "mapping",
        "key": "t_address",
        "label": "mapping(address => mapping(address => bool))",
        "numberOfBytes": "32",
        "value": "t_mapping(t_address,t_bool)"
      },
      "t_mapping(t_address,t_uint256)": {
        "encoding": "mapping",
        "key": "t_address",
        "label": "mapping(address => uint256)",
        "numberOfBytes": "32",
        "value": "t_uint256"
      },
      "t_mapping(t_uint256,t_address)": {
        "encoding": "mapping",
        "key": "t_uint256",
        "label": "mapping(uint256 => address)",
        "numberOfBytes": "32",
        "value": "t_address"
      },
      "t_mapping(t_uint256,t_enum(RequestType)3689)": {
        "encoding": "mapping",
        "key": "t_uint256",
        "label": "mapping(uint256 => enum EnchanTix.RequestType)",
        "numberOfBytes": "32",
        "value": "t_enum(RequestType)3689"
      },
      "t_mapping(t_uint256,t_string_storage)": {
        "encoding": "mapping",
        "key": "t_uint256",
        "label": "mapping(uint256 => string)",
        "numberOfBytes": "32",
        "value": "t_string_storage"
      },
      "t_string_storage": {
        "encoding": "bytes",
        "label": "string",
        "numberOfBytes": "32"
      },
      "t_struct(Counter)2268_storage": {
        "encoding": "inplace",
        "label": "struct Counters.Counter",
        "members": [
          {
            "astId": 2267,
            "contract": "contracts/EnchanTix.sol:EnchanTix",
            "label": "_value",
            "offset": 0,
            "slot": "0",
            "type": "t_uint256"
          }
        ],
        "numberOfBytes": "32"
      },
      "t_uint16": {
        "encoding": "inplace",
        "label": "uint16",
        "numberOfBytes": "2"
      },
      "t_uint256": {
        "encoding": "inplace",
        "label": "uint256",
        "numberOfBytes": "32"
      },
      "t_uint32": {
        "encoding": "inplace",
        "label": "uint32",
        "numberOfBytes": "4"
      }
    }
  }
}