{
  "address": "0x7115325A03c967CDfc449E5B30058bd5F89Ec472",
  "abi": [
    {
      "inputs": [
        {
          "internalType": "address",
          "name": "vrfCoordinator",
          "type": "address"
        }
      ],
      "stateMutability": "nonpayable",
      "type": "constructor"
    },
    {
      "inputs": [
        {
          "internalType": "uint256",
          "name": "amount",
          "type": "uint256"
        }
      ],
      "name": "InsufficientFunds",
      "type": "error"
    },
    {
      "inputs": [
        {
          "internalType": "address",
          "name": "have",
          "type": "address"
        },
        {
          "internalType": "address",
          "name": "want",
          "type": "address"
        }
      ],
      "name": "OnlyCoordinatorCanFulfill",
      "type": "error"
    },
    {
      "anonymous": false,
      "inputs": [
        {
          "indexed": true,
          "internalType": "address",
          "name": "from",
          "type": "address"
        },
        {
          "indexed": true,
          "internalType": "address",
          "name": "to",
          "type": "address"
        }
      ],
      "name": "OwnershipTransferRequested",
      "type": "event"
    },
    {
      "anonymous": false,
      "inputs": [
        {
          "indexed": true,
          "internalType": "address",
          "name": "from",
          "type": "address"
        },
        {
          "indexed": true,
          "internalType": "address",
          "name": "to",
          "type": "address"
        }
      ],
      "name": "OwnershipTransferred",
      "type": "event"
    },
    {
      "anonymous": false,
      "inputs": [
        {
          "indexed": false,
          "internalType": "uint256",
          "name": "requestId",
          "type": "uint256"
        },
        {
          "indexed": false,
          "internalType": "uint256[]",
          "name": "randomWords",
          "type": "uint256[]"
        },
        {
          "indexed": false,
          "internalType": "enum VRFv2Consumer.RequestPurpose",
          "name": "requestPurpose",
          "type": "uint8"
        }
      ],
      "name": "RequestFulfilled",
      "type": "event"
    },
    {
      "anonymous": false,
      "inputs": [
        {
          "indexed": false,
          "internalType": "uint256",
          "name": "requestId",
          "type": "uint256"
        },
        {
          "indexed": false,
          "internalType": "uint32",
          "name": "numWords",
          "type": "uint32"
        },
        {
          "indexed": false,
          "internalType": "enum VRFv2Consumer.RequestPurpose",
          "name": "requestPurpose",
          "type": "uint8"
        }
      ],
      "name": "RequestSent",
      "type": "event"
    },
    {
      "inputs": [],
      "name": "acceptOwnership",
      "outputs": [],
      "stateMutability": "nonpayable",
      "type": "function"
    },
    {
      "inputs": [
        {
          "internalType": "address",
          "name": "consumerAddress",
          "type": "address"
        }
      ],
      "name": "addConsumer",
      "outputs": [],
      "stateMutability": "nonpayable",
      "type": "function"
    },
    {
      "inputs": [
        {
          "internalType": "address",
          "name": "receivingWallet",
          "type": "address"
        }
      ],
      "name": "cancelSubscription",
      "outputs": [],
      "stateMutability": "nonpayable",
      "type": "function"
    },
    {
      "inputs": [
        {
          "internalType": "uint256",
          "name": "_requestId",
          "type": "uint256"
        }
      ],
      "name": "getRequestStatus",
      "outputs": [
        {
          "internalType": "bool",
          "name": "fulfilled",
          "type": "bool"
        },
        {
          "internalType": "uint256[]",
          "name": "randomWords",
          "type": "uint256[]"
        }
      ],
      "stateMutability": "view",
      "type": "function"
    },
    {
      "inputs": [],
      "name": "lastRequestId",
      "outputs": [
        {
          "internalType": "uint256",
          "name": "",
          "type": "uint256"
        }
      ],
      "stateMutability": "view",
      "type": "function"
    },
    {
      "inputs": [
        {
          "internalType": "uint256",
          "name": "currPoemPrice",
          "type": "uint256"
        },
        {
          "internalType": "enum VRFv2Consumer.RequestPurpose",
          "name": "_requestPurpose",
          "type": "uint8"
        }
      ],
      "name": "mintNewPoem",
      "outputs": [
        {
          "internalType": "uint256",
          "name": "requestId",
          "type": "uint256"
        }
      ],
      "stateMutability": "payable",
      "type": "function"
    },
    {
      "inputs": [],
      "name": "owner",
      "outputs": [
        {
          "internalType": "address",
          "name": "",
          "type": "address"
        }
      ],
      "stateMutability": "view",
      "type": "function"
    },
    {
      "inputs": [
        {
          "internalType": "uint256",
          "name": "requestId",
          "type": "uint256"
        },
        {
          "internalType": "uint256[]",
          "name": "randomWords",
          "type": "uint256[]"
        }
      ],
      "name": "rawFulfillRandomWords",
      "outputs": [],
      "stateMutability": "nonpayable",
      "type": "function"
    },
    {
      "inputs": [
        {
          "internalType": "address",
          "name": "consumerAddress",
          "type": "address"
        }
      ],
      "name": "removeConsumer",
      "outputs": [],
      "stateMutability": "nonpayable",
      "type": "function"
    },
    {
      "inputs": [
        {
          "internalType": "uint256",
          "name": "",
          "type": "uint256"
        }
      ],
      "name": "requestIds",
      "outputs": [
        {
          "internalType": "uint256",
          "name": "",
          "type": "uint256"
        }
      ],
      "stateMutability": "view",
      "type": "function"
    },
    {
      "inputs": [],
      "name": "s_owner",
      "outputs": [
        {
          "internalType": "address",
          "name": "",
          "type": "address"
        }
      ],
      "stateMutability": "view",
      "type": "function"
    },
    {
      "inputs": [],
      "name": "s_poemPrice",
      "outputs": [
        {
          "internalType": "uint256",
          "name": "",
          "type": "uint256"
        }
      ],
      "stateMutability": "view",
      "type": "function"
    },
    {
      "inputs": [
        {
          "internalType": "uint256",
          "name": "",
          "type": "uint256"
        }
      ],
      "name": "s_randomWords",
      "outputs": [
        {
          "internalType": "uint256",
          "name": "",
          "type": "uint256"
        }
      ],
      "stateMutability": "view",
      "type": "function"
    },
    {
      "inputs": [],
      "name": "s_requestId",
      "outputs": [
        {
          "internalType": "uint256",
          "name": "",
          "type": "uint256"
        }
      ],
      "stateMutability": "view",
      "type": "function"
    },
    {
      "inputs": [
        {
          "internalType": "uint256",
          "name": "",
          "type": "uint256"
        }
      ],
      "name": "s_requests",
      "outputs": [
        {
          "internalType": "bool",
          "name": "fulfilled",
          "type": "bool"
        },
        {
          "internalType": "bool",
          "name": "exists",
          "type": "bool"
        },
        {
          "internalType": "enum VRFv2Consumer.RequestPurpose",
          "name": "requestPurpose",
          "type": "uint8"
        },
        {
          "internalType": "address",
          "name": "requester",
          "type": "address"
        }
      ],
      "stateMutability": "view",
      "type": "function"
    },
    {
      "inputs": [
        {
          "internalType": "uint256",
          "name": "amount",
          "type": "uint256"
        }
      ],
      "name": "topUpSubscription",
      "outputs": [],
      "stateMutability": "nonpayable",
      "type": "function"
    },
    {
      "inputs": [
        {
          "internalType": "address",
          "name": "to",
          "type": "address"
        }
      ],
      "name": "transferOwnership",
      "outputs": [],
      "stateMutability": "nonpayable",
      "type": "function"
    },
    {
      "inputs": [
        {
          "internalType": "uint256",
          "name": "amount",
          "type": "uint256"
        },
        {
          "internalType": "address",
          "name": "to",
          "type": "address"
        }
      ],
      "name": "withdraw",
      "outputs": [],
      "stateMutability": "nonpayable",
      "type": "function"
    }
  ],
  "transactionHash": "0x7f51530a3c3bd19d3c95919031807d3fefdc337a21174a397bd32c08d756b5c6",
  "args": [
    "0x46bA64D0e705B800756f3f5cAFB4af8873b26520"
  ],
  "numDeployments": 1,
  "solcInputHash": "3a12e7057764ef6ac5a9f4df5edbd073",
  "bytecode": "0x60e060405273779877a7b0d9e8603169ddbd7836e478b4624789600260006101000a81548173ffffffffffffffffffffffffffffffffffffffff021916908373ffffffffffffffffffffffffffffffffffffffff1602179055507f474e34a077df58807dbe9c96d3c009b23b3c6d0cce433e59bbf5b34f823bc56c60001b600355620186a0600460006101000a81548163ffffffff021916908363ffffffff16021790555060036004806101000a81548161ffff021916908361ffff1602179055506003600460066101000a81548163ffffffff021916908363ffffffff160217905550348015620000f057600080fd5b506040516200280538038062002805833981810160405281019062000116919062000692565b80338060008073ffffffffffffffffffffffffffffffffffffffff168273ffffffffffffffffffffffffffffffffffffffff16036200018c576040517f08c379a0000000000000000000000000000000000000000000000000000000008152600401620001839062000725565b60405180910390fd5b816000806101000a81548173ffffffffffffffffffffffffffffffffffffffff021916908373ffffffffffffffffffffffffffffffffffffffff160217905550600073ffffffffffffffffffffffffffffffffffffffff168173ffffffffffffffffffffffffffffffffffffffff1614620002135762000212816200032d60201b60201c565b5b5050508073ffffffffffffffffffffffffffffffffffffffff1660808173ffffffffffffffffffffffffffffffffffffffff1681525050508073ffffffffffffffffffffffffffffffffffffffff1660a08173ffffffffffffffffffffffffffffffffffffffff1681525050600260009054906101000a900473ffffffffffffffffffffffffffffffffffffffff1673ffffffffffffffffffffffffffffffffffffffff1660c08173ffffffffffffffffffffffffffffffffffffffff168152505033600760086101000a81548173ffffffffffffffffffffffffffffffffffffffff021916908373ffffffffffffffffffffffffffffffffffffffff160217905550620003266200045c60201b60201c565b50620008f1565b3373ffffffffffffffffffffffffffffffffffffffff168173ffffffffffffffffffffffffffffffffffffffff16036200039e576040517f08c379a0000000000000000000000000000000000000000000000000000000008152600401620003959062000797565b60405180910390fd5b80600160006101000a81548173ffffffffffffffffffffffffffffffffffffffff021916908373ffffffffffffffffffffffffffffffffffffffff1602179055508073ffffffffffffffffffffffffffffffffffffffff1660008054906101000a900473ffffffffffffffffffffffffffffffffffffffff1673ffffffffffffffffffffffffffffffffffffffff167fed8889f560326eb138920d842192f0eb3dd22b4f139c87a2c57538e05bae127860405160405180910390a350565b6200046c6200059560201b60201c565b60a05173ffffffffffffffffffffffffffffffffffffffff1663a21a23e46040518163ffffffff1660e01b81526004016020604051808303816000875af1158015620004bc573d6000803e3d6000fd5b505050506040513d601f19601f82011682018060405250810190620004e29190620007fe565b600760006101000a81548167ffffffffffffffff021916908367ffffffffffffffff16021790555060a05173ffffffffffffffffffffffffffffffffffffffff16637341c10c600760009054906101000a900467ffffffffffffffff16306040518363ffffffff1660e01b81526004016200055f92919062000852565b600060405180830381600087803b1580156200057a57600080fd5b505af11580156200058f573d6000803e3d6000fd5b50505050565b60008054906101000a900473ffffffffffffffffffffffffffffffffffffffff1673ffffffffffffffffffffffffffffffffffffffff163373ffffffffffffffffffffffffffffffffffffffff161462000626576040517f08c379a00000000000000000000000000000000000000000000000000000000081526004016200061d90620008cf565b60405180910390fd5b565b600080fd5b600073ffffffffffffffffffffffffffffffffffffffff82169050919050565b60006200065a826200062d565b9050919050565b6200066c816200064d565b81146200067857600080fd5b50565b6000815190506200068c8162000661565b92915050565b600060208284031215620006ab57620006aa62000628565b5b6000620006bb848285016200067b565b91505092915050565b600082825260208201905092915050565b7f43616e6e6f7420736574206f776e657220746f207a65726f0000000000000000600082015250565b60006200070d601883620006c4565b91506200071a82620006d5565b602082019050919050565b600060208201905081810360008301526200074081620006fe565b9050919050565b7f43616e6e6f74207472616e7366657220746f2073656c66000000000000000000600082015250565b60006200077f601783620006c4565b91506200078c8262000747565b602082019050919050565b60006020820190508181036000830152620007b28162000770565b9050919050565b600067ffffffffffffffff82169050919050565b620007d881620007b9565b8114620007e457600080fd5b50565b600081519050620007f881620007cd565b92915050565b60006020828403121562000817576200081662000628565b5b60006200082784828501620007e7565b91505092915050565b6200083b81620007b9565b82525050565b6200084c816200064d565b82525050565b600060408201905062000869600083018562000830565b62000878602083018462000841565b9392505050565b7f4f6e6c792063616c6c61626c65206279206f776e657200000000000000000000600082015250565b6000620008b7601683620006c4565b9150620008c4826200087f565b602082019050919050565b60006020820190508181036000830152620008ea81620008a8565b9050919050565b60805160a05160c051611eba6200094b6000396000818161044c01526108a80152600081816104f7015281816105a5015281816108e4015281816109f60152610f9201526000818161064b015261069f0152611eba6000f3fe6080604052600436106101085760003560e01c8063a168fa8911610095578063e397824011610064578063e39782401461035b578063e89e106a14610386578063f2fde38b146103b1578063f6eaffc8146103da578063fc2a88c31461041757610108565b8063a168fa8914610282578063b734e86b146102c2578063d7138ca8146102ed578063d8a4676f1461031d57610108565b806379ba5097116100dc57806379ba5097146101b157806386850e93146101c85780638796ba8c146101f15780638da5cb5b1461022e57806393d81d581461025957610108565b8062f714ce1461010d5780630e27e3df14610136578063112940f91461015f5780631fe543e314610188575b600080fd5b34801561011957600080fd5b50610134600480360381019061012f91906114c8565b610442565b005b34801561014257600080fd5b5061015d60048036038101906101589190611508565b6104ed565b005b34801561016b57600080fd5b5061018660048036038101906101819190611508565b61059b565b005b34801561019457600080fd5b506101af60048036038101906101aa919061168e565b610649565b005b3480156101bd57600080fd5b506101c6610709565b005b3480156101d457600080fd5b506101ef60048036038101906101ea91906116ea565b61089e565b005b3480156101fd57600080fd5b50610218600480360381019061021391906116ea565b61099f565b6040516102259190611726565b60405180910390f35b34801561023a57600080fd5b506102436109c3565b6040516102509190611750565b60405180910390f35b34801561026557600080fd5b50610280600480360381019061027b9190611508565b6109ec565b005b34801561028e57600080fd5b506102a960048036038101906102a491906116ea565b610ac4565b6040516102b994939291906117fd565b60405180910390f35b3480156102ce57600080fd5b506102d7610b3b565b6040516102e49190611726565b60405180910390f35b61030760048036038101906103029190611867565b610b41565b6040516103149190611726565b60405180910390f35b34801561032957600080fd5b50610344600480360381019061033f91906116ea565b610ba2565b604051610352929190611965565b60405180910390f35b34801561036757600080fd5b50610370610d5e565b60405161037d9190611750565b60405180910390f35b34801561039257600080fd5b5061039b610d84565b6040516103a89190611726565b60405180910390f35b3480156103bd57600080fd5b506103d860048036038101906103d39190611508565b610d8a565b005b3480156103e657600080fd5b5061040160048036038101906103fc91906116ea565b610d9e565b60405161040e9190611726565b60405180910390f35b34801561042357600080fd5b5061042c610dc2565b6040516104399190611726565b60405180910390f35b61044a610dc8565b7f000000000000000000000000000000000000000000000000000000000000000073ffffffffffffffffffffffffffffffffffffffff1663a9059cbb82846040518363ffffffff1660e01b81526004016104a5929190611995565b6020604051808303816000875af11580156104c4573d6000803e3d6000fd5b505050506040513d601f19601f820116820180604052508101906104e891906119ea565b505050565b6104f5610dc8565b7f000000000000000000000000000000000000000000000000000000000000000073ffffffffffffffffffffffffffffffffffffffff16639f87fad7600760009054906101000a900467ffffffffffffffff16836040518363ffffffff1660e01b8152600401610566929190611a3a565b600060405180830381600087803b15801561058057600080fd5b505af1158015610594573d6000803e3d6000fd5b5050505050565b6105a3610dc8565b7f000000000000000000000000000000000000000000000000000000000000000073ffffffffffffffffffffffffffffffffffffffff16637341c10c600760009054906101000a900467ffffffffffffffff16836040518363ffffffff1660e01b8152600401610614929190611a3a565b600060405180830381600087803b15801561062e57600080fd5b505af1158015610642573d6000803e3d6000fd5b5050505050565b7f000000000000000000000000000000000000000000000000000000000000000073ffffffffffffffffffffffffffffffffffffffff163373ffffffffffffffffffffffffffffffffffffffff16146106fb57337f00000000000000000000000000000000000000000000000000000000000000006040517f1cf993f40000000000000000000000000000000000000000000000000000000081526004016106f2929190611a63565b60405180910390fd5b6107058282610e58565b5050565b600160009054906101000a900473ffffffffffffffffffffffffffffffffffffffff1673ffffffffffffffffffffffffffffffffffffffff163373ffffffffffffffffffffffffffffffffffffffff1614610799576040517f08c379a000000000000000000000000000000000000000000000000000000000815260040161079090611ae9565b60405180910390fd5b60008060009054906101000a900473ffffffffffffffffffffffffffffffffffffffff169050336000806101000a81548173ffffffffffffffffffffffffffffffffffffffff021916908373ffffffffffffffffffffffffffffffffffffffff1602179055506000600160006101000a81548173ffffffffffffffffffffffffffffffffffffffff021916908373ffffffffffffffffffffffffffffffffffffffff1602179055503373ffffffffffffffffffffffffffffffffffffffff168173ffffffffffffffffffffffffffffffffffffffff167f8be0079c531659141344cd1fd0a4f28419497f9722a3daafe3b4186f6b6457e060405160405180910390a350565b6108a6610dc8565b7f000000000000000000000000000000000000000000000000000000000000000073ffffffffffffffffffffffffffffffffffffffff16634000aea07f000000000000000000000000000000000000000000000000000000000000000083600760009054906101000a900467ffffffffffffffff1660405160200161092b9190611b09565b6040516020818303038152906040526040518463ffffffff1660e01b815260040161095893929190611ba3565b6020604051808303816000875af1158015610977573d6000803e3d6000fd5b505050506040513d601f19601f8201168201806040525081019061099b91906119ea565b5050565b600881815481106109af57600080fd5b906000526020600020016000915090505481565b60008060009054906101000a900473ffffffffffffffffffffffffffffffffffffffff16905090565b6109f4610dc8565b7f000000000000000000000000000000000000000000000000000000000000000073ffffffffffffffffffffffffffffffffffffffff1663d7ae1d30600760009054906101000a900467ffffffffffffffff16836040518363ffffffff1660e01b8152600401610a65929190611a3a565b600060405180830381600087803b158015610a7f57600080fd5b505af1158015610a93573d6000803e3d6000fd5b505050506000600760006101000a81548167ffffffffffffffff021916908367ffffffffffffffff16021790555050565b600c6020528060005260406000206000915090508060000160009054906101000a900460ff16908060000160019054906101000a900460ff16908060000160029054906101000a900460ff16908060000160039054906101000a900473ffffffffffffffffffffffffffffffffffffffff16905084565b600b5481565b600082600b81905550600b54341015610b9157346040517fcb78cce2000000000000000000000000000000000000000000000000000000008152600401610b889190611726565b60405180910390fd5b610b9a82610f8e565b905092915050565b60006060600c600084815260200190815260200160002060000160019054906101000a900460ff16610c09576040517f08c379a0000000000000000000000000000000000000000000000000000000008152600401610c0090611c2d565b60405180910390fd5b6000600c60008581526020019081526020016000206040518060a00160405290816000820160009054906101000a900460ff161515151581526020016000820160019054906101000a900460ff161515151581526020016000820160029054906101000a900460ff166001811115610c8457610c83611786565b5b6001811115610c9657610c95611786565b5b81526020016000820160039054906101000a900473ffffffffffffffffffffffffffffffffffffffff1673ffffffffffffffffffffffffffffffffffffffff1673ffffffffffffffffffffffffffffffffffffffff16815260200160018201805480602002602001604051908101604052809291908181526020018280548015610d3f57602002820191906000526020600020905b815481526020019060010190808311610d2b575b5050505050815250509050806000015181608001519250925050915091565b600760089054906101000a900473ffffffffffffffffffffffffffffffffffffffff1681565b60065481565b610d92610dc8565b610d9b8161128a565b50565b60058181548110610dae57600080fd5b906000526020600020016000915090505481565b60095481565b60008054906101000a900473ffffffffffffffffffffffffffffffffffffffff1673ffffffffffffffffffffffffffffffffffffffff163373ffffffffffffffffffffffffffffffffffffffff1614610e56576040517f08c379a0000000000000000000000000000000000000000000000000000000008152600401610e4d90611c99565b60405180910390fd5b565b600c600083815260200190815260200160002060000160019054906101000a900460ff16610ebb576040517f08c379a0000000000000000000000000000000000000000000000000000000008152600401610eb290611c2d565b60405180910390fd5b6001600c600084815260200190815260200160002060000160006101000a81548160ff02191690831515021790555080600c60008481526020019081526020016000206001019080519060200190610f149291906113b6565b508060059080519060200190610f2b9291906113b6565b507fae828170b7b9d7d86b0b02dece107e9ce479aeca3b636e410ba3e981a02fa5228282600c600086815260200190815260200160002060000160029054906101000a900460ff16604051610f8293929190611cb9565b60405180910390a15050565b60007f000000000000000000000000000000000000000000000000000000000000000073ffffffffffffffffffffffffffffffffffffffff16635d3b1d30600354600760009054906101000a900467ffffffffffffffff1660048054906101000a900461ffff16600460009054906101000a900463ffffffff16600460069054906101000a900463ffffffff166040518663ffffffff1660e01b815260040161103b959493929190611d4c565b6020604051808303816000875af115801561105a573d6000803e3d6000fd5b505050506040513d601f19601f8201168201806040525081019061107e9190611db4565b90506040518060a001604052806000151581526020016001151581526020018360018111156110b0576110af611786565b5b81526020013373ffffffffffffffffffffffffffffffffffffffff168152602001600067ffffffffffffffff8111156110ec576110eb61154b565b5b60405190808252806020026020018201604052801561111a5781602001602082028036833780820191505090505b50815250600c600083815260200190815260200160002060008201518160000160006101000a81548160ff02191690831515021790555060208201518160000160016101000a81548160ff02191690831515021790555060408201518160000160026101000a81548160ff0219169083600181111561119c5761119b611786565b5b021790555060608201518160000160036101000a81548173ffffffffffffffffffffffffffffffffffffffff021916908373ffffffffffffffffffffffffffffffffffffffff16021790555060808201518160010190805190602001906112049291906113b6565b509050506008819080600181540180825580915050600190039060005260206000200160009091909190915055806009819055507fa98529c05993d95ad21eaddbc5ddbb86e519b5a15eedb2fab9e723b377dd50e181600460069054906101000a900463ffffffff168460405161127d93929190611de1565b60405180910390a1919050565b3373ffffffffffffffffffffffffffffffffffffffff168173ffffffffffffffffffffffffffffffffffffffff16036112f8576040517f08c379a00000000000000000000000000000000000000000000000000000000081526004016112ef90611e64565b60405180910390fd5b80600160006101000a81548173ffffffffffffffffffffffffffffffffffffffff021916908373ffffffffffffffffffffffffffffffffffffffff1602179055508073ffffffffffffffffffffffffffffffffffffffff1660008054906101000a900473ffffffffffffffffffffffffffffffffffffffff1673ffffffffffffffffffffffffffffffffffffffff167fed8889f560326eb138920d842192f0eb3dd22b4f139c87a2c57538e05bae127860405160405180910390a350565b8280548282559060005260206000209081019282156113f2579160200282015b828111156113f15782518255916020019190600101906113d6565b5b5090506113ff9190611403565b5090565b5b8082111561141c576000816000905550600101611404565b5090565b6000604051905090565b600080fd5b600080fd5b6000819050919050565b61144781611434565b811461145257600080fd5b50565b6000813590506114648161143e565b92915050565b600073ffffffffffffffffffffffffffffffffffffffff82169050919050565b60006114958261146a565b9050919050565b6114a58161148a565b81146114b057600080fd5b50565b6000813590506114c28161149c565b92915050565b600080604083850312156114df576114de61142a565b5b60006114ed85828601611455565b92505060206114fe858286016114b3565b9150509250929050565b60006020828403121561151e5761151d61142a565b5b600061152c848285016114b3565b91505092915050565b600080fd5b6000601f19601f8301169050919050565b7f4e487b7100000000000000000000000000000000000000000000000000000000600052604160045260246000fd5b6115838261153a565b810181811067ffffffffffffffff821117156115a2576115a161154b565b5b80604052505050565b60006115b5611420565b90506115c1828261157a565b919050565b600067ffffffffffffffff8211156115e1576115e061154b565b5b602082029050602081019050919050565b600080fd5b600061160a611605846115c6565b6115ab565b9050808382526020820190506020840283018581111561162d5761162c6115f2565b5b835b8181101561165657806116428882611455565b84526020840193505060208101905061162f565b5050509392505050565b600082601f83011261167557611674611535565b5b81356116858482602086016115f7565b91505092915050565b600080604083850312156116a5576116a461142a565b5b60006116b385828601611455565b925050602083013567ffffffffffffffff8111156116d4576116d361142f565b5b6116e085828601611660565b9150509250929050565b600060208284031215611700576116ff61142a565b5b600061170e84828501611455565b91505092915050565b61172081611434565b82525050565b600060208201905061173b6000830184611717565b92915050565b61174a8161148a565b82525050565b60006020820190506117656000830184611741565b92915050565b60008115159050919050565b6117808161176b565b82525050565b7f4e487b7100000000000000000000000000000000000000000000000000000000600052602160045260246000fd5b600281106117c6576117c5611786565b5b50565b60008190506117d7826117b5565b919050565b60006117e7826117c9565b9050919050565b6117f7816117dc565b82525050565b60006080820190506118126000830187611777565b61181f6020830186611777565b61182c60408301856117ee565b6118396060830184611741565b95945050505050565b6002811061184f57600080fd5b50565b60008135905061186181611842565b92915050565b6000806040838503121561187e5761187d61142a565b5b600061188c85828601611455565b925050602061189d85828601611852565b9150509250929050565b600081519050919050565b600082825260208201905092915050565b6000819050602082019050919050565b6118dc81611434565b82525050565b60006118ee83836118d3565b60208301905092915050565b6000602082019050919050565b6000611912826118a7565b61191c81856118b2565b9350611927836118c3565b8060005b8381101561195857815161193f88826118e2565b975061194a836118fa565b92505060018101905061192b565b5085935050505092915050565b600060408201905061197a6000830185611777565b818103602083015261198c8184611907565b90509392505050565b60006040820190506119aa6000830185611741565b6119b76020830184611717565b9392505050565b6119c78161176b565b81146119d257600080fd5b50565b6000815190506119e4816119be565b92915050565b600060208284031215611a00576119ff61142a565b5b6000611a0e848285016119d5565b91505092915050565b600067ffffffffffffffff82169050919050565b611a3481611a17565b82525050565b6000604082019050611a4f6000830185611a2b565b611a5c6020830184611741565b9392505050565b6000604082019050611a786000830185611741565b611a856020830184611741565b9392505050565b600082825260208201905092915050565b7f4d7573742062652070726f706f736564206f776e657200000000000000000000600082015250565b6000611ad3601683611a8c565b9150611ade82611a9d565b602082019050919050565b60006020820190508181036000830152611b0281611ac6565b9050919050565b6000602082019050611b1e6000830184611a2b565b92915050565b600081519050919050565b600082825260208201905092915050565b60005b83811015611b5e578082015181840152602081019050611b43565b60008484015250505050565b6000611b7582611b24565b611b7f8185611b2f565b9350611b8f818560208601611b40565b611b988161153a565b840191505092915050565b6000606082019050611bb86000830186611741565b611bc56020830185611717565b8181036040830152611bd78184611b6a565b9050949350505050565b7f72657175657374206e6f7420666f756e64000000000000000000000000000000600082015250565b6000611c17601183611a8c565b9150611c2282611be1565b602082019050919050565b60006020820190508181036000830152611c4681611c0a565b9050919050565b7f4f6e6c792063616c6c61626c65206279206f776e657200000000000000000000600082015250565b6000611c83601683611a8c565b9150611c8e82611c4d565b602082019050919050565b60006020820190508181036000830152611cb281611c76565b9050919050565b6000606082019050611cce6000830186611717565b8181036020830152611ce08185611907565b9050611cef60408301846117ee565b949350505050565b6000819050919050565b611d0a81611cf7565b82525050565b600061ffff82169050919050565b611d2781611d10565b82525050565b600063ffffffff82169050919050565b611d4681611d2d565b82525050565b600060a082019050611d616000830188611d01565b611d6e6020830187611a2b565b611d7b6040830186611d1e565b611d886060830185611d3d565b611d956080830184611d3d565b9695505050505050565b600081519050611dae8161143e565b92915050565b600060208284031215611dca57611dc961142a565b5b6000611dd884828501611d9f565b91505092915050565b6000606082019050611df66000830186611717565b611e036020830185611d3d565b611e1060408301846117ee565b949350505050565b7f43616e6e6f74207472616e7366657220746f2073656c66000000000000000000600082015250565b6000611e4e601783611a8c565b9150611e5982611e18565b602082019050919050565b60006020820190508181036000830152611e7d81611e41565b905091905056fea26469706673582212205c480ffe08bc1ab2e12d01f56a592c4f47bd04e48ce521c642d2cf8206a91f9264736f6c63430008130033",
  "devdoc": {
    "kind": "dev",
    "methods": {},
    "version": 1
  },
  "userdoc": {
    "kind": "user",
    "methods": {
      "acceptOwnership()": {
        "notice": "Allows an ownership transfer to be completed by the recipient."
      },
      "owner()": {
        "notice": "Get the current owner"
      },
      "transferOwnership(address)": {
        "notice": "Allows an owner to begin transferring ownership to a new address."
      }
    },
    "version": 1
  },
  "storageLayout": {
    "storage": [
      {
        "astId": 29,
        "contract": "contracts/VRFv2Consumer.sol:VRFv2Consumer",
        "label": "s_owner",
        "offset": 0,
        "slot": "0",
        "type": "t_address"
      },
      {
        "astId": 31,
        "contract": "contracts/VRFv2Consumer.sol:VRFv2Consumer",
        "label": "s_pendingOwner",
        "offset": 0,
        "slot": "1",
        "type": "t_address"
      },
      {
        "astId": 3712,
        "contract": "contracts/VRFv2Consumer.sol:VRFv2Consumer",
        "label": "linkTokenContract",
        "offset": 0,
        "slot": "2",
        "type": "t_address"
      },
      {
        "astId": 3715,
        "contract": "contracts/VRFv2Consumer.sol:VRFv2Consumer",
        "label": "keyHash",
        "offset": 0,
        "slot": "3",
        "type": "t_bytes32"
      },
      {
        "astId": 3718,
        "contract": "contracts/VRFv2Consumer.sol:VRFv2Consumer",
        "label": "callbackGasLimit",
        "offset": 0,
        "slot": "4",
        "type": "t_uint32"
      },
      {
        "astId": 3721,
        "contract": "contracts/VRFv2Consumer.sol:VRFv2Consumer",
        "label": "requestConfirmations",
        "offset": 4,
        "slot": "4",
        "type": "t_uint16"
      },
      {
        "astId": 3724,
        "contract": "contracts/VRFv2Consumer.sol:VRFv2Consumer",
        "label": "numWords",
        "offset": 6,
        "slot": "4",
        "type": "t_uint32"
      },
      {
        "astId": 3727,
        "contract": "contracts/VRFv2Consumer.sol:VRFv2Consumer",
        "label": "s_randomWords",
        "offset": 0,
        "slot": "5",
        "type": "t_array(t_uint256)dyn_storage"
      },
      {
        "astId": 3729,
        "contract": "contracts/VRFv2Consumer.sol:VRFv2Consumer",
        "label": "s_requestId",
        "offset": 0,
        "slot": "6",
        "type": "t_uint256"
      },
      {
        "astId": 3731,
        "contract": "contracts/VRFv2Consumer.sol:VRFv2Consumer",
        "label": "s_subscriptionId",
        "offset": 0,
        "slot": "7",
        "type": "t_uint64"
      },
      {
        "astId": 3733,
        "contract": "contracts/VRFv2Consumer.sol:VRFv2Consumer",
        "label": "s_owner",
        "offset": 8,
        "slot": "7",
        "type": "t_address"
      },
      {
        "astId": 3736,
        "contract": "contracts/VRFv2Consumer.sol:VRFv2Consumer",
        "label": "requestIds",
        "offset": 0,
        "slot": "8",
        "type": "t_array(t_uint256)dyn_storage"
      },
      {
        "astId": 3738,
        "contract": "contracts/VRFv2Consumer.sol:VRFv2Consumer",
        "label": "lastRequestId",
        "offset": 0,
        "slot": "9",
        "type": "t_uint256"
      },
      {
        "astId": 3741,
        "contract": "contracts/VRFv2Consumer.sol:VRFv2Consumer",
        "label": "s_lovePoem",
        "offset": 0,
        "slot": "10",
        "type": "t_contract(ILovePoem)4162"
      },
      {
        "astId": 3743,
        "contract": "contracts/VRFv2Consumer.sol:VRFv2Consumer",
        "label": "s_poemPrice",
        "offset": 0,
        "slot": "11",
        "type": "t_uint256"
      },
      {
        "astId": 3764,
        "contract": "contracts/VRFv2Consumer.sol:VRFv2Consumer",
        "label": "s_requests",
        "offset": 0,
        "slot": "12",
        "type": "t_mapping(t_uint256,t_struct(RequestStatus)3759_storage)"
      }
    ],
    "types": {
      "t_address": {
        "encoding": "inplace",
        "label": "address",
        "numberOfBytes": "20"
      },
      "t_array(t_uint256)dyn_storage": {
        "base": "t_uint256",
        "encoding": "dynamic_array",
        "label": "uint256[]",
        "numberOfBytes": "32"
      },
      "t_bool": {
        "encoding": "inplace",
        "label": "bool",
        "numberOfBytes": "1"
      },
      "t_bytes32": {
        "encoding": "inplace",
        "label": "bytes32",
        "numberOfBytes": "32"
      },
      "t_contract(ILovePoem)4162": {
        "encoding": "inplace",
        "label": "contract ILovePoem",
        "numberOfBytes": "20"
      },
      "t_enum(RequestPurpose)3746": {
        "encoding": "inplace",
        "label": "enum VRFv2Consumer.RequestPurpose",
        "numberOfBytes": "1"
      },
      "t_mapping(t_uint256,t_struct(RequestStatus)3759_storage)": {
        "encoding": "mapping",
        "key": "t_uint256",
        "label": "mapping(uint256 => struct VRFv2Consumer.RequestStatus)",
        "numberOfBytes": "32",
        "value": "t_struct(RequestStatus)3759_storage"
      },
      "t_struct(RequestStatus)3759_storage": {
        "encoding": "inplace",
        "label": "struct VRFv2Consumer.RequestStatus",
        "members": [
          {
            "astId": 3748,
            "contract": "contracts/VRFv2Consumer.sol:VRFv2Consumer",
            "label": "fulfilled",
            "offset": 0,
            "slot": "0",
            "type": "t_bool"
          },
          {
            "astId": 3750,
            "contract": "contracts/VRFv2Consumer.sol:VRFv2Consumer",
            "label": "exists",
            "offset": 1,
            "slot": "0",
            "type": "t_bool"
          },
          {
            "astId": 3753,
            "contract": "contracts/VRFv2Consumer.sol:VRFv2Consumer",
            "label": "requestPurpose",
            "offset": 2,
            "slot": "0",
            "type": "t_enum(RequestPurpose)3746"
          },
          {
            "astId": 3755,
            "contract": "contracts/VRFv2Consumer.sol:VRFv2Consumer",
            "label": "requester",
            "offset": 3,
            "slot": "0",
            "type": "t_address"
          },
          {
            "astId": 3758,
            "contract": "contracts/VRFv2Consumer.sol:VRFv2Consumer",
            "label": "randomWords",
            "offset": 0,
            "slot": "1",
            "type": "t_array(t_uint256)dyn_storage"
          }
        ],
        "numberOfBytes": "64"
      },
      "t_uint16": {
        "encoding": "inplace",
        "label": "uint16",
        "numberOfBytes": "2"
      },
      "t_uint256": {
        "encoding": "inplace",
        "label": "uint256",
        "numberOfBytes": "32"
      },
      "t_uint32": {
        "encoding": "inplace",
        "label": "uint32",
        "numberOfBytes": "4"
      },
      "t_uint64": {
        "encoding": "inplace",
        "label": "uint64",
        "numberOfBytes": "8"
      }
    }
  }
}